:100000000C943E000C9448000C9448000C9448005A
:100010000C9448000C9448000C9448000C94480040
:100020000C9448000C9448000C9448000C94480030
:100030000C9448000C9448000C9448000C94480020
:100040000C9448000C9448000C9448000C94480010
:100050000C9448000C9448000C9448000C94480000
:100060000C9448000C9448000C9448000C944800F0
:100070000C9448000C9448000C94480011241FBEB6
:10008000CFEFD8E0DEBFCDBF0E9469010C946E01B6
:100090000C9400001092C50089E18093C40088E1AF
:1000A0008093C100E2ECF0E08081877F80838081D3
:1000B0008660808308959091C00095FFFCCF809367
:1000C000C60008958091C00087FFFCCF8091C600D4
:1000D0000895CF93DF93EC018991882319F00E9452
:1000E0005B00FACFDF91CF9108959091C00095FF0A
:1000F000FCCF8093C60080E090E008958F929F929D
:10010000AF92BF92CF92DF92EF92FF920F931F9325
:10011000CF93DF936C015B01C0E0D0E0812C912C88
:10012000E12CF12C8E010F5F1F4F0A151B0500F506
:100130000E9462008D3051F08A3089F0F601EC0F98
:10014000FD1F8083E114F10489F004C08E01EE24C8
:10015000E394F12C8114910449F0E80109C0E11401
:10016000F10431F48E0188248394912CE801DACFD4
:10017000CC0DDD1D1882DF91CF911F910F91FF9063
:10018000EF90DF90CF90BF90AF909F908F900895A9
:100190000F931F93CF93DF93FC0101900020E9F7A9
:1001A000EC018F0101501109C017D10721F089918D
:1001B0000E945B00F9CF8DE00E945B008AE0DF9136
:1001C000CF911F910F910C945B000F931F93CF93CE
:1001D000DF9300D01F92CDB7DEB72FEF83E294EF0D
:1001E000215080409040E1F700C0000083E5898302
:1001F0001A828E010F5F1F4FC8010E94C80019822A
:1002000063E070E0C8010E947E008981843549F472
:10021000F80101900020E9F7CF01029780179107BC
:1002200009F0FFCF85E58983C8010E94C8000F90BF
:100230000F900F90DF91CF911F910F910895FF9232
:100240000F931F93CF93DF9300D01F92CDB7DEB7EC
:10025000529A5A9863E070E08E010F5F1F4FC801F9
:100260000E947E00F80101900020E9F7CF0102977B
:100270008017910709F0FFCFF98081E08F0D898306
:10028000C8010E94C8008FEF898363E070E0C80155
:100290000E947E002981022E000C330B8F2DFF0C53
:1002A000990B02962817390749F4F80101900020AC
:1002B000E9F7CF0102978017910709F0FFCF5A9A0B
:1002C0000F900F900F90DF91CF911F910F91FF90A2
:1002D00008950E944A000E941F01FFCFF894FFCFAB
:00000001FF
