:100000000C943E000C945B000C945B000C945B0021
:100010000C943D030C945B000C945B000C945B000F
:100020000C945B000C94D2030C945B000C945B006A
:100030000C945B000C945B000C945B000C945B00D4
:100040000C945B000C945B000C942B030C945B00F1
:100050000C945B000C945B000C945B000C945B00B4
:100060000C945B000C945B000C945B000C945B00A4
:100070000C945B000C945B000C945B0011241FBE7D
:10008000CFEFD8E0DEBFCDBF11E0A0E0B1E0ECEDF6
:10009000F2E102C005900D92A831B107D9F721E035
:1000A000A8E1B1E001C01D92A232B207E1F70E94BF
:1000B0002D040C946C090C9400000F931F93CF93A4
:1000C000DF93CDB7DEB7C054D1090FB6F894DEBFC9
:1000D0000FBECDBF0E9492030E9405057F936F93D0
:1000E00080E091E09F938F938E010F5F1F4F1F93CE
:1000F0000F930E94940663E071E0C8010E947806A5
:10010000C8010E947A010F900F900F900F900F90EE
:100110000F90C05CDF4F0FB6F894DEBF0FBECDBFAF
:10012000DF91CF911F910F9108950F931F93CF935C
:10013000DF93CDB7DEB7C054D1090FB6F894DEBF58
:100140000FBECDBF60E470E0CE0101960E94300189
:10015000CE0101960E945A068C0160E470E0CE0147
:1001600001960E943001CE0101960E945A06BC0100
:100170008BB194E098279BB9C8010E946D02C05CC6
:10018000DF4F0FB6F894DEBF0FBECDBFDF91CF912A
:100190001F910F910895CF93DF93CDB7DEB7C05471
:1001A000D1090FB6F894DEBF0FBECDBF60E470E09A
:1001B000CE0101960E94300167E071E0CE01019608
:1001C0000E948306892B29F481E080931801289AE4
:1001D00003C0289810921801C05CDF4F0FB6F89446
:1001E000DEBF0FBECDBFDF91CF91089578941092FE
:1001F0001801209A289808951092C50089E18093EB
:10020000C40088E18093C100E2ECF0E08081877F48
:10021000808380818660808308959091C00095FFDF
:10022000FCCF8093C60008958091C00087FFFCCF6B
:100230008091C6000895CF93DF93EC0189918823C4
:1002400019F00E940D01FACFDF91CF91089590919E
:10025000C00095FFFCCF8093C60080E090E0089539
:100260008F929F92AF92BF92CF92DF92EF92FF92C6
:100270000F931F93CF93DF936C015B01C0E0D0E03D
:10028000812C912CE12CF12C8E010F5F1F4F0A1550
:100290001B0500F50E9414018D3051F08A3089F061
:1002A000F601EC0FFD1F8083E114F10489F004C016
:1002B0008E01EE24E394F12C8114910449F0E801BD
:1002C00009C0E114F10431F48E0188248394912C47
:1002D000E801DACFCC0DDD1D1882DF91CF911F919F
:1002E0000F91FF90EF90DF90CF90BF90AF909F90D5
:1002F0008F9008950F931F93CF93DF93FC0101908C
:100300000020E9F7EC018F0101501109C017D10756
:1003100021F089910E940D01F9CF8DE00E940D011D
:100320008AE0DF91CF911F910F910C940D010F93F3
:100330001F93CF93DF9300D01F92CDB7DEB72FEF7F
:1003400083E294EF215080409040E1F700C000002C
:1003500083E589831A828E010F5F1F4FC8010E94B7
:100360007A01198263E070E0C8010E94300189813E
:10037000843549F4F80101900020E9F7CF01029794
:100380008017910709F0FFCF85E58983C8010E9496
:100390007A010F900F900F90DF91CF911F910F91E5
:1003A0000895FF920F931F93CF93DF9300D01F9276
:1003B000CDB7DEB7529A5A9863E070E08E010F5FB6
:1003C0001F4FC8010E943001F80101900020E9F799
:1003D000CF0102978017910709F0FFCFF98081E0E4
:1003E0008F0D8983C8010E947A018FEF898363E0B2
:1003F00070E0C8010E9430012981022E000C330BED
:100400008F2DFF0C990B02962817390749F4F80134
:1004100001900020E9F7CF0102978017910709F0BA
:10042000FFCF5A9A0F900F900F90DF91CF911F91AD
:100430000F91FF9008958AB180638AB9E0E8F0E0F7
:100440001082A1E8B0E01C92808180688083808166
:10045000806280838081826080838C9188618C93AC
:100460008C9183608C9380ED97E0909387008093CC
:10047000860088E097E090938900809388009093AD
:100480008B0080938A008FE087B918B8089588B1EF
:10049000807F88B988B18A6088B9089588B1807FE3
:1004A00088B988B1856088B9089588B18C7F88B98A
:1004B000409A089588B1837F88B9429A089588B197
:1004C0008C7F88B9419A089588B1837F88B9439A0F
:1004D000089588B1807F88B90895CF93DF939C01F8
:1004E000275F3F4F2331310520F4DF91CF910C94EA
:1004F0006902EB01181619065CF40E94920320E0D1
:1005000030E044E052E40E940005181674F70BC076
:10051000663F7F4F1CF40E94550213C02B977CF05E
:100520000E945F0208C0C63F8FEFD807CCF32B971D
:1005300094F70E945502DF91CF910C945A020E94C9
:100540005F02DF91CF910C94640288B18C7F88B9EF
:10055000089588B1837F88B908950F931F93CF932F
:10056000DF93EC018B018C392FEF920734F0853645
:1005700091052CF0C4E6D0E002C0CCE9DFEF0C39E5
:100580008FEF180734F0053611052CF004E610E063
:1005900002C00CE91FEFCE010996439718F40E94A0
:1005A00069020AC0D7FF06C0D195C195D1090E9442
:1005B000470202C00E944E0217FF12C0119501951A
:1005C0001109C09FC001C19F900DD09F900D1124B3
:1005D0006CE97FEF0E946B048E01C60FD71F0EC01F
:1005E000C09FC001C19F900DD09F900D11246CE958
:1005F0007FEF0E946B048E01060F171FCA30D105D2
:1006000014F40E94A5020A30110514F40E94A902F4
:1006100024E62C9FC0012D9F900D1124805F984DE2
:1006200088332AE4920714F088E39AE490938900CF
:100630008093880020EB2003C001219F900D11249E
:10064000805F984D90938B0080938A00DF91CF91CB
:100650001F910F91089578941F920F920FB60F92E9
:1006600011248F93809120018F5F809320018F91BF
:100670000F900FBE0F901F90189578941F920F92B5
:100680000FB60F9211248F93019B04C016BC1092D9
:1006900020010AC086B580931F01809120018093BC
:1006A0001E0181E0809321018F910F900FBE0F906A
:1006B0001F90189514BC15BCEEE6F0E010827894FB
:1006C00085B5846085BD808181608083089A0998A2
:1006D0001098E8E6F0E0808181608083EBE6F0E04E
:1006E00010828081826080830895CF93DF93C0EB76
:1006F000D0E01882A1EBB0E01C92E0E7F0E01082BD
:100700001092190178948881826088838C91876027
:100710008C938FEF8093B300808182608083DF9120
:10072000CF91089560911A0170911B0180911C0175
:1007300090911D0108951092210110988AE18A95E7
:10074000F1F700C0109A9AE39A95F1F700C010985B
:1007500080912101811104C0809120018630C0F375
:1007600080911F0160911E019FEF699FB0011124CC
:10077000680F711D072E000C880B990B0E943D0518
:1007800020E030E040E851E40E94ED0526E933E442
:100790004BE85CE30E94ED0520E030E0A9010E94F7
:1007A0009404089578941F920F920FB60F9211241B
:1007B0002F933F934F935F936F937F938F939F9369
:1007C000AF93BF93EF93FF93809119018F5F809355
:1007D0001901809119018C3079F5809170008D7F1D
:1007E000809370000E949B0360931A0170931B0119
:1007F00080931C0190931D0180911801811113C0F9
:1008000060911A0170911B0180911C0190911D0152
:1008100020E030E044E052E40E940005181614F095
:10082000289A01C02898109219011092B200809164
:100830007000826080937000FF91EF91BF91AF9143
:100840009F918F917F916F915F914F913F912F91E8
:100850000F900FBE0F901F901895CF93DF93CDB7D9
:10086000DEB7C054D1090FB6F894DEBF0FBECDBFBE
:100870000E94F6000E94FC000E94D1010E945A03CF
:100880000E9475030E941B0260E470E0CE01019695
:100890000E9430016AE071E0CE0101960E94830659
:1008A000892B19F40E945D00EFCF6FE071E0CE015B
:1008B00001960E948306892B19F40E949500E4CFCB
:1008C00063E171E0CE0101960E948306892BE1F677
:1008D0000E94CB00D9CF97FB072E16F4009407D0C7
:1008E00077FD09D00E947F0407FC05D03EF4909567
:1008F00081959F4F0895709561957F4F0895AA1B2C
:10090000BB1B51E107C0AA1FBB1FA617B70710F0FA
:10091000A61BB70B881F991F5A95A9F7809590952C
:10092000BC01CD0108955058BB27AA270E94AB04F3
:100930000C94B3050E94A50538F00E94AC0520F088
:1009400039F49F3F19F426F40C94A2050EF4E095B7
:10095000E7FB0C949C05E92F0E94C40558F3BA17D5
:10096000620773078407950720F079F4A6F50C94C5
:10097000E6050EF4E0950B2EBA2FA02D0B01B90160
:1009800090010C01CA01A0011124FF27591B99F005
:10099000593F50F4503E68F11A16F040A22F232F11
:1009A000342F4427585FF3CF469537952795A79561
:1009B000F0405395C9F77EF41F16BA0B620B730B08
:1009C000840BBAF09150A1F0FF0FBB1F661F771F79
:1009D000881FC2F70EC0BA0F621F731F841F48F42E
:1009E000879577956795B795F7959E3F08F0B0CFB7
:1009F0009395880F08F09927EE0F9795879508959E
:100A00000E94780508F481E008950E940C0568941E
:100A1000B1110C94E70508950E94CC0588F09F570A
:100A200098F0B92F9927B751B0F0E1F0660F771F12
:100A3000881F991F1AF0BA95C9F714C0B13091F008
:100A40000E94E605B1E008950C94E605672F782F23
:100A50008827B85F39F0B93FCCF3869577956795CD
:100A6000B395D9F73EF490958095709561957F4F39
:100A70008F4F9F4F0895E89409C097FB3EF49095DF
:100A80008095709561957F4F8F4F9F4F9923A9F067
:100A9000F92F96E9BB279395F695879577956795F6
:100AA000B795F111F8CFFAF4BB0F11F460FF1BC03A
:100AB0006F5F7F4F8F4F9F4F16C0882311F096E9CD
:100AC00011C0772321F09EE8872F762F05C066237B
:100AD00071F096E8862F70E060E02AF09A95660F34
:100AE000771F881FDAF7880F9695879597F90895ED
:100AF000990F0008550FAA0BE0E8FEEF161617062F
:100B0000E807F907C0F012161306E407F50798F096
:100B1000621B730B840B950B39F40A2661F0232BAF
:100B2000242B252B21F408950A2609F4A140A6952B
:100B30008FEF811D811D089597F99F6780E870E010
:100B400060E008959FEF80EC089500240A94161643
:100B5000170618060906089500240A9412161306AB
:100B6000140605060895092E0394000C11F4882339
:100B700052F0BB0F40F4BF2B11F460FF04C06F5F55
:100B80007F4F8F4F9F4F089557FD9058440F551F2B
:100B900059F05F3F71F04795880F97FB991F61F0FF
:100BA0009F3F79F087950895121613061406551F76
:100BB000F2CF4695F1DF08C0161617061806991FE2
:100BC000F1CF86957105610508940895E894BB27D7
:100BD00066277727CB0197F908950E9400060C94A9
:100BE000B3050E94A50538F00E94AC0520F09523BE
:100BF00011F00C949C050C94A20511240C94E705AB
:100C00000E94C40570F3959FC1F3950F50E0551FE6
:100C1000629FF001729FBB27F00DB11D639FAA2751
:100C2000F00DB11DAA1F649F6627B00DA11D661FA0
:100C3000829F2227B00DA11D621F739FB00DA11DC1
:100C4000621F839FA00D611D221F749F3327A00D7B
:100C5000611D231F849F600D211D822F762F6A2F17
:100C600011249F5750409AF0F1F088234AF0EE0F7C
:100C7000FF1FBB1F661F771F881F91505040A9F7A9
:100C80009E3F510580F00C949C050C94E7055F3F56
:100C9000E4F3983ED4F3869577956795B795F795E5
:100CA000E7959F5FC1F7FE2B880F911D969587955D
:100CB00097F90895FC0188279927E894219120321B
:100CC000E9F3293010F02E30C8F32B3241F02D32E9
:100CD00039F4689404C00E948C06820F911D219102
:100CE00020532A30C0F31EF4909581959F4F0895AC
:100CF000FB01DC010D900020E9F7119701900D92A6
:100D00000020E1F70895FB01DC018D91019080192D
:100D10000110D9F3990B08957AE0979F902D879F42
:100D2000802D910D11240895AEE0B0E0EAE9F6E0DF
:100D30000C9443090D891E8986E08C831A830983EC
:100D40008FEF9FE79E838D83AE01475E5F4F6F8974
:100D5000788DCE0101960E94B7062F813885F80163
:100D6000E20FF31F10822E96E4E00C945F09ACE0D2
:100D7000B0E0EDEBF6E00C9435097C016B018A01E3
:100D8000FC0117821682838181FFBDC1CE010196CD
:100D90004C01F7019381F60193FD859193FF8191B9
:100DA0006F01882309F4ABC1853239F493FD859135
:100DB00093FF81916F01853229F4B70190E00E9481
:100DC0009F08E7CF512C312C20E02032A0F48B3249
:100DD00069F030F4803259F0833269F420612CC01C
:100DE0008D3239F0803339F4216026C022602460CE
:100DF00023C0286021C027FD27C030ED380F3A30CE
:100E000078F426FF06C0FAE05F9E300D1124532EC1
:100E100013C08AE0389E300D1124332E20620CC09E
:100E20008E3221F426FD6BC1206406C08C3611F48D
:100E3000206802C0883641F4F60193FD859193FF46
:100E400081916F018111C1CF982F9F7D955493306F
:100E500028F40C5F1F4FFFE3F9830DC0833631F098
:100E6000833771F0833509F05BC022C0F8018081BF
:100E700089830E5F1F4F44244394512C540115C0A5
:100E80003801F2E06F0E711CF801A080B18026FFDE
:100E900003C0652D70E002C06FEF7FEFC5012C87A6
:100EA0000E9494082C0183012C852F77222E17C0D5
:100EB0003801F2E06F0E711CF801A080B18026FFAE
:100EC00003C0652D70E002C06FEF7FEFC5012C8776
:100ED0000E9489082C012C852068222E830123FC86
:100EE0001BC0832D90E048165906B0F4B70180E28C
:100EF00090E00E949F083A94F4CFF50127FC859179
:100F000027FE81915F01B70190E00E949F08311098
:100F10003A94F1E04F1A51084114510471F7E5C0B9
:100F2000843611F0893639F5F80127FF07C0608152
:100F30007181828193810C5F1F4F08C06081718134
:100F4000072E000C880B990B0E5F1F4F2F76722E09
:100F500097FF09C090958095709561957F4F8F4F51
:100F60009F4F2068722E2AE030E0A4010E94D7082B
:100F7000A82EA81844C0853729F42F7EB22E2AE067
:100F800030E025C0F22FF97FBF2E8F36C1F018F464
:100F9000883579F0B4C0803719F0883721F0AFC0B8
:100FA0002F2F2061B22EB4FE0DC08B2D8460B82E81
:100FB00009C024FF0AC09F2F9660B92E06C028E002
:100FC00030E005C020E130E002C020E132E0F8016D
:100FD000B7FE07C060817181828193810C5F1F4FD2
:100FE00006C06081718180E090E00E5F1F4FA40118
:100FF0000E94D708A82EA818FB2DFF777F2E76FE1B
:101000000BC0372D3E7FA51450F474FE0AC072FC4D
:1010100008C0372D3E7E05C0BA2C372D03C0BA2C30
:1010200001C0B52C34FF0DC0FE01EA0DF11D808119
:10103000803311F4397E09C032FF06C0B394B394F3
:1010400004C0832F867809F0B39433FD13C030FFBA
:1010500006C05A2CB31418F4530C5B18B32CB314F9
:1010600068F4B70180E290E03C870E949F08B39447
:101070003C85F5CFB31410F43B1801C0312C34FF7C
:1010800012C0B70180E390E03C870E949F083C8536
:1010900032FF17C031FD03C088E790E002C088E549
:1010A00090E0B7010CC0832F867859F031FF02C061
:1010B0008BE201C080E237FD8DE2B70190E00E9433
:1010C0009F08A51438F4B70180E390E00E949F08C0
:1010D0005A94F7CFAA94F401EA0DF11D8081B7016B
:1010E00090E00E949F08A110F5CF332009F451CE63
:1010F000B70180E290E00E949F083A94F6CFF70192
:101100008681978102C08FEF9FEF2C96E2E10C94CD
:101110005109FC010590615070400110D8F780958D
:1011200090958E0F9F1F0895FC01615070400190B3
:101130000110D8F7809590958E0F9F1F08950F93FB
:101140001F93CF93DF93FB01238121FD03C08FEF1A
:101150009FEF28C022FF16C0468157812481358128
:101160004217530744F4A081B1819D012F5F3F4F87
:10117000318320838C93268137812F5F3F4F3783C4
:10118000268310C0EB01092F182F0084F185E02D74
:101190000995892BE1F68E819F8101969F838E832D
:1011A000812F902FDF91CF911F910F910895FA0118
:1011B000AA27283051F1203181F1E8946F936E7F96
:1011C0006E5F7F4F8F4F9F4FAF4FB1E03ED0B4E087
:1011D0003CD0670F781F891F9A1FA11D680F791FC8
:1011E0008A1F911DA11D6A0F711D811D911DA11DD9
:1011F00020D009F468943F912AE0269F11243019E9
:10120000305D3193DEF6CF010895462F4770405D83
:101210004193B3E00FD0C9F7F6CF462F4F70405D32
:101220004A3318F0495D31FD4052419302D0A9F78D
:10123000EACFB4E0A6959795879577956795BA9587
:10124000C9F700976105710508959B01AC010A2E4D
:1012500006945795479537952795BA95C9F7620F24
:10126000731F841F951FA01D08952F923F924F92C8
:101270005F926F927F928F929F92AF92BF92CF9226
:10128000DF92EF92FF920F931F93CF93DF93CDB72F
:10129000DEB7CA1BDB0B0FB6F894DEBF0FBECDBFA7
:1012A00009942A88398848885F846E847D848C8478
:1012B0009B84AA84B984C884DF80EE80FD800C8181
:1012C0001B81AA81B981CE0FD11D0FB6F894DEBF64
:0C12D0000FBECDBFED010895F894FFCFD4
:1012DC0025640020636D004F4E0044495354004375
:0812EC00415200484F524E0030
:00000001FF
