:100000000C943E000C945B000C945B000C945B0021
:100010000C94C6020C945B000C945B000C945B0087
:100020000C945B000C945B030C945B000C945B00E1
:100030000C945B000C945B000C945B000C945B00D4
:100040000C945B000C945B000C94B4020C945B0069
:100050000C945B000C945B000C945B000C945B00B4
:100060000C945B000C945B000C945B000C945B00A4
:100070000C945B000C945B000C945B0011241FBE7D
:10008000CFEFD8E0DEBFCDBF11E0A0E0B1E0E2ED00
:10009000F1E102C005900D92A031B107D9F721E03E
:1000A000A0E1B1E001C01D92A931B207E1F70E94C1
:1000B000B2030C94E7080C9400000F931F93CF93A6
:1000C000DF93CDB7DEB7C054D1090FB6F894DEBFC9
:1000D0000FBECDBF0E941B030E9480047F936F93CD
:1000E00080E091E09F938F938E010F5F1F4F1F93CE
:1000F0000F930E940F0663E071E0C8010E94F305B0
:10010000C8010E9449010F900F900F900F900F901F
:100110000F90C05CDF4F0FB6F894DEBF0FBECDBFAF
:10012000DF91CF911F910F9108950F931F93CF935C
:10013000DF93CDB7DEB7C054D1090FB6F894DEBF58
:100140000FBECDBF60E470E0CE0101960E94FF00BB
:10015000CE0101960E94D5058C0160E470E0CE01CD
:1001600001960E94FF00CE0101960E94D505BC01B8
:100170008BB194E098279BB9C8010E943002C05C03
:10018000DF4F0FB6F894DEBF0FBECDBFDF91CF912A
:100190001F910F9108951092C50089E18093C400CA
:1001A00088E18093C100E2ECF0E08081877F80836A
:1001B00080818660808308959091C00095FFFCCF78
:1001C0008093C60008958091C00087FFFCCF809186
:1001D000C6000895CF93DF93EC018991882319F02D
:1001E0000E94DC00FACFDF91CF9108959091C0007A
:1001F00095FFFCCF8093C60080E090E008958F9239
:100200009F92AF92BF92CF92DF92EF92FF920F93A5
:100210001F93CF93DF936C015B01C0E0D0E0812C92
:10022000912CE12CF12C8E010F5F1F4F0A151B053D
:1002300000F50E94E3008D3051F08A3089F0F6011C
:10024000EC0FFD1F8083E114F10489F004C08E01DE
:10025000EE24E394F12C8114910449F0E80109C0E3
:10026000E114F10431F48E0188248394912CE80187
:10027000DACFCC0DDD1D1882DF91CF911F910F9148
:10028000FF90EF90DF90CF90BF90AF909F908F90B6
:1002900008950F931F93CF93DF93FC0101900020EB
:1002A000E9F7EC018F0101501109C017D10721F0C6
:1002B00089910E94DC00F9CF8DE00E94DC008AE089
:1002C000DF91CF911F910F910C94DC000F931F933E
:1002D000CF93DF9300D01F92CDB7DEB72FEF83E22D
:1002E00094EF215080409040E1F700C0000083E58A
:1002F00089831A828E010F5F1F4FC8010E94490136
:10030000198263E070E0C8010E94FF008981843592
:1003100049F4F80101900020E9F7CF010297801716
:10032000910709F0FFCF85E58983C8010E94490143
:100330000F900F900F90DF91CF911F910F91089523
:10034000FF920F931F93CF93DF9300D01F92CDB7EF
:10035000DEB7529A5A9863E070E08E010F5F1F4F2C
:10036000C8010E94FF00F80101900020E9F7CF01C9
:1003700002978017910709F0FFCFF98081E08F0D78
:100380008983C8010E9449018FEF898363E070E08F
:10039000C8010E94FF002981022E000C330B8F2D13
:1003A000FF0C990B02962817390749F4F8010190C0
:1003B0000020E9F7CF0102978017910709F0FFCFDE
:1003C0005A9A0F900F900F90DF91CF911F910F913C
:1003D000FF9008958AB180638AB9E0E8F0E0108266
:1003E000A1E8B0E01C928081806880838081806277
:1003F00080838081826080838C9188618C938C91D2
:1004000083608C9388E893E19093870080938600C3
:1004100084EC99E0909389008093880090938B00FE
:1004200080938A008FE087B918B8089588B1807FDB
:1004300088B988B18A6088B9089588B1877888B901
:1004400088B1856088B9089588B1807F88B908959A
:1004500088B18C7F88B9089588B1837F88B9089561
:100460000F931F93CF93DF93EC018B018C394FEFE8
:10047000940734F0853691052CF0C4E6D0E002C034
:10048000CCE9DFEF0C398FEF180734F00536110592
:100490002CF004E610E002C00CE91FEFCE01099633
:1004A000439718F40E9424020AC0D7FF06C0D195D2
:1004B000C195D1090E94160202C00E941D0217FFB9
:1004C00012C0119501951109C09FC001C19F900DE7
:1004D000D09F900D11246CE97FEF0E94E6038E01FE
:1004E000C60FD71F0EC0C09FC001C19F900DD09FE7
:1004F000900D11246CE97FEF0E94E6038E01060F38
:10050000171FCA30D10514F40E9428020A301105C1
:1005100014F40E942C0281E28C9F90018D9F300D7B
:1005200011242C55394F223F42E1340714F022EFB9
:1005300032E141E2409FC001419F900D11248C5552
:10054000994F823F42E1940714F082EF92E1309399
:1005500089002093880090938B0080938A00DF911C
:10056000CF911F910F91089578941F920F920FB61B
:100570000F9211248F93809117018F5F8093170141
:100580008F910F900FBE0F901F90189578941F9227
:100590000F920FB60F9211248F93019B04C016BCCB
:1005A000109217010AC086B5809316018091170139
:1005B0008093150181E0809318018F910F900FBEF9
:1005C0000F901F90189514BC15BCEEE6F0E0108259
:1005D000789485B5846085BD808181608083089A28
:1005E00009981098E8E6F0E0808181608083EBE66E
:1005F000F0E010828081826080830895CF93DF9342
:10060000C0EBD0E01882A1EBB0E01C92E0E7F0E094
:1006100010821092100178948881826088838C9176
:1006200087608C938FEF8093B3008081826080839A
:10063000DF91CF9108956091110170911201809125
:1006400013019091140108951092180110988AE1F5
:100650008A95F1F700C0109A9AE39A95F1F700C0D5
:10066000109880911801811104C080911701863083
:10067000C0F380911601609115019FEF699FB00151
:100680001124680F711D072E000C880B990B0E9416
:10069000B80420E030E040E851E40E94680526E913
:1006A00033E44BE85CE30E94680520E030E0A901F8
:1006B0000E940F04089578941F920F920FB60F9224
:1006C00011242F933F934F935F936F937F938F9357
:1006D0009F93AF93BF93EF93FF93809110018F5F30
:1006E00080931001809110018C3059F58091700039
:1006F0008D7F809370000E9424036093110170939A
:100700001201809313019093140160911101709173
:100710001201809113019091140120E030E040E734
:1007200051E40E947B04181614F0289A01C02898FE
:10073000109210011092B20080917000826080933C
:100740007000FF91EF91BF91AF919F918F917F9139
:100750006F915F914F913F912F910F900FBE0F902E
:100760001F901895CF93DF93CDB7DEB7C054D10952
:100770000FB6F894DEBF0FBECDBF7894209A2898AC
:100780000E94CB000E94A0010E94E3020E94FE0290
:100790000E94EA0160E470E0CE0101960E94FF0031
:1007A00067E071E0CE0101960E94FE05892B19F4E5
:1007B0000E945D00EFCF6CE071E0CE0101960E94D7
:1007C000FE05892B39F70E949500E4CF97FB072E91
:1007D00016F4009407D077FD09D00E94FA0307FCB5
:1007E00005D03EF4909581959F4F08957095619541
:1007F0007F4F0895AA1BBB1B51E107C0AA1FBB1F57
:10080000A617B70710F0A61BB70B881F991F5A959C
:10081000A9F780959095BC01CD0108955058BB274C
:10082000AA270E9426040C942E050E94200538F069
:100830000E94270520F039F49F3F19F426F40C9408
:100840001D050EF4E095E7FB0C941705E92F0E94B7
:100850003F0558F3BA17620773078407950720F01E
:1008600079F4A6F50C9461050EF4E0950B2EBA2FE1
:10087000A02D0B01B90190010C01CA01A0011124A6
:10088000FF27591B99F0593F50F4503E68F11A1652
:10089000F040A22F232F342F4427585FF3CF4695E3
:1008A00037952795A795F0405395C9F77EF41F1605
:1008B000BA0B620B730B840BBAF09150A1F0FF0FCF
:1008C000BB1F661F771F881FC2F70EC0BA0F621FBB
:1008D000731F841F48F4879577956795B795F795AB
:1008E0009E3F08F0B0CF9395880F08F09927EE0F40
:1008F0009795879508950E94F30408F481E0089580
:100900000E9487046894B1110C94620508950E94B6
:10091000470588F09F5798F0B92F9927B751B0F045
:10092000E1F0660F771F881F991F1AF0BA95C9F773
:1009300014C0B13091F00E946105B1E008950C94AB
:100940006105672F782F8827B85F39F0B93FCCF35E
:10095000869577956795B395D9F73EF490958095F0
:10096000709561957F4F8F4F9F4F0895E89409C010
:1009700097FB3EF490958095709561957F4F8F4FD2
:100980009F4F9923A9F0F92F96E9BB279395F695E8
:10099000879577956795B795F111F8CFFAF4BB0F66
:1009A00011F460FF1BC06F5F7F4F8F4F9F4F16C0CA
:1009B000882311F096E911C0772321F09EE8872F54
:1009C000762F05C0662371F096E8862F70E060E010
:1009D0002AF09A95660F771F881FDAF7880F969589
:1009E000879597F90895990F0008550FAA0BE0E82D
:1009F000FEEF16161706E807F907C0F012161306E1
:100A0000E407F50798F0621B730B840B950B39F420
:100A10000A2661F0232B242B252B21F408950A2686
:100A200009F4A140A6958FEF811D811D089597F9C6
:100A30009F6780E870E060E008959FEF80EC089584
:100A400000240A94161617061806090608950024AD
:100A50000A9412161306140605060895092E039427
:100A6000000C11F4882352F0BB0F40F4BF2B11F49B
:100A700060FF04C06F5F7F4F8F4F9F4F089557FDFA
:100A80009058440F551F59F05F3F71F04795880FFC
:100A900097FB991F61F09F3F79F087950895121693
:100AA00013061406551FF2CF4695F1DF08C016163F
:100AB00017061806991FF1CF8695710561050894F0
:100AC0000895E894BB2766277727CB0197F9089507
:100AD0000E947B050C942E050E94200538F00E9490
:100AE000270520F0952311F00C9417050C941D0593
:100AF00011240C9462050E943F0570F3959FC1F389
:100B0000950F50E0551F629FF001729FBB27F00DBB
:100B1000B11D639FAA27F00DB11DAA1F649F662710
:100B2000B00DA11D661F829F2227B00DA11D621F5F
:100B3000739FB00DA11D621F839FA00D611D221F19
:100B4000749F3327A00D611D231F849F600D211DFD
:100B5000822F762F6A2F11249F5750409AF0F1F080
:100B600088234AF0EE0FFF1FBB1F661F771F881FE9
:100B700091505040A9F79E3F510580F00C94170505
:100B80000C9462055F3FE4F3983ED4F38695779525
:100B90006795B795F795E7959F5FC1F7FE2B880F8F
:100BA000911D9695879597F90895FC0188279927B7
:100BB000E89421912032E9F3293010F02E30C8F367
:100BC0002B3241F02D3239F4689404C00E9407069C
:100BD000820F911D219120532A30C0F31EF490956D
:100BE00081959F4F0895FB01DC010D900020E9F7EE
:100BF000119701900D920020E1F70895FB01DC01AF
:100C00008D91019080190110D9F3990B08957AE024
:100C1000979F902D879F802D910D11240895AEE010
:100C2000B0E0E5E1F6E00C94BE080D891E8986E08F
:100C30008C831A8309838FEF9FE79E838D83AE0198
:100C4000475E5F4F6F89788DCE0101960E94320614
:100C50002F813885F801E20FF31F10822E96E4E011
:100C60000C94DA08ACE0B0E0E8E3F6E00C94B008ED
:100C70007C016B018A01FC0117821682838181FF4E
:100C8000BDC1CE0101964C01F7019381F60193FDA0
:100C9000859193FF81916F01882309F4ABC185325F
:100CA00039F493FD859193FF81916F01853229F489
:100CB000B70190E00E941A08E7CF512C312C20E0B8
:100CC0002032A0F48B3269F030F4803259F0833254
:100CD00069F420612CC08D3239F0803339F4216001
:100CE00026C02260246023C0286021C027FD27C0C1
:100CF00030ED380F3A3078F426FF06C0FAE05F9EF8
:100D0000300D1124532E13C08AE0389E300D11246B
:100D1000332E20620CC08E3221F426FD6BC120647C
:100D200006C08C3611F4206802C0883641F4F60102
:100D300093FD859193FF81916F018111C1CF982F10
:100D40009F7D9554933028F40C5F1F4FFFE3F98388
:100D50000DC0833631F0833771F0833509F05BC005
:100D600022C0F801808189830E5F1F4F4424439481
:100D7000512C540115C03801F2E06F0E711CF801BE
:100D8000A080B18026FF03C0652D70E002C06FEF28
:100D90007FEFC5012C870E940F082C0183012C8551
:100DA0002F77222E17C03801F2E06F0E711CF80168
:100DB000A080B18026FF03C0652D70E002C06FEFF8
:100DC0007FEFC5012C870E9404082C012C85206828
:100DD000222E830123FC1BC0832D90E04816590668
:100DE000B0F4B70180E290E00E941A083A94F4CF80
:100DF000F50127FC859127FE81915F01B70190E005
:100E00000E941A0831103A94F1E04F1A5108411427
:100E1000510471F7E5C0843611F0893639F5F801CF
:100E200027FF07C060817181828193810C5F1F4F12
:100E300008C060817181072E000C880B990B0E5F32
:100E40001F4F2F76722E97FF09C090958095709551
:100E500061957F4F8F4F9F4F2068722E2AE030E0C0
:100E6000A4010E945208A82EA81844C0853729F46E
:100E70002F7EB22E2AE030E025C0F22FF97FBF2E60
:100E80008F36C1F018F4883579F0B4C0803719F086
:100E9000883721F0AFC02F2F2061B22EB4FE0DC0D5
:100EA0008B2D8460B82E09C024FF0AC09F2F966046
:100EB000B92E06C028E030E005C020E130E002C0D5
:100EC00020E132E0F801B7FE07C0608171818281C4
:100ED00093810C5F1F4F06C06081718180E090E0BC
:100EE0000E5F1F4FA4010E945208A82EA818FB2DC8
:100EF000FF777F2E76FE0BC0372D3E7FA51450F472
:100F000074FE0AC072FC08C0372D3E7E05C0BA2CA4
:100F1000372D03C0BA2C01C0B52C34FF0DC0FE0123
:100F2000EA0DF11D8081803311F4397E09C032FF52
:100F300006C0B394B39404C0832F867809F0B394A9
:100F400033FD13C030FF06C05A2CB31418F4530CF1
:100F50005B18B32CB31468F4B70180E290E03C87CF
:100F60000E941A08B3943C85F5CFB31410F43B18D3
:100F700001C0312C34FF12C0B70180E390E03C8700
:100F80000E941A083C8532FF17C031FD03C088E774
:100F900090E002C088E590E0B7010CC0832F86780E
:100FA00059F031FF02C08BE201C080E237FD8DE2D3
:100FB000B70190E00E941A08A51438F4B70180E345
:100FC00090E00E941A085A94F7CFAA94F401EA0D0F
:100FD000F11D8081B70190E00E941A08A110F5CFA1
:100FE000332009F451CEB70180E290E00E941A0844
:100FF0003A94F6CFF7018681978102C08FEF9FEF79
:101000002C96E2E10C94CC08FC01059061507040F4
:101010000110D8F7809590958E0F9F1F0895FC01C1
:101020006150704001900110D8F7809590958E0F17
:101030009F1F08950F931F93CF93DF93FB0123818D
:1010400021FD03C08FEF9FEF28C022FF16C046810D
:101050005781248135814217530744F4A081B1811F
:101060009D012F5F3F4F318320838C9326813781F1
:101070002F5F3F4F3783268310C0EB01092F182FB6
:101080000084F185E02D0995892BE1F68E819F8101
:1010900001969F838E83812F902FDF91CF911F9197
:1010A0000F910895FA01AA27283051F1203181F1DA
:1010B000E8946F936E7F6E5F7F4F8F4F9F4FAF4F60
:1010C000B1E03ED0B4E03CD0670F781F891F9A1F73
:1010D000A11D680F791F8A1F911DA11D6A0F711D27
:1010E000811D911DA11D20D009F468943F912AE033
:1010F000269F11243019305D3193DEF6CF0108951B
:10110000462F4770405D4193B3E00FD0C9F7F6CF4B
:10111000462F4F70405D4A3318F0495D31FD405213
:10112000419302D0A9F7EACFB4E0A69597958795A9
:1011300077956795BA95C9F7009761057105089588
:101140009B01AC010A2E0694579547953795279534
:10115000BA95C9F7620F731F841F951FA01D0895CC
:101160002F923F924F925F926F927F928F929F92B7
:10117000AF92BF92CF92DF92EF92FF920F931F93A5
:10118000CF93DF93CDB7DEB7CA1BDB0B0FB6F89456
:10119000DEBF0FBECDBF09942A88398848885F8496
:1011A0006E847D848C849B84AA84B984C884DF8007
:1011B000EE80FD800C811B81AA81B981CE0FD11DEB
:1011C0000FB6F894DEBF0FBECDBFED010895F894C1
:0211D000FFCF4F
:1011D20025640020636D004449535400434152008A
:00000001FF
