:100000000C943E000C945B000C945B000C945B0021
:100010000C94B8030C945B000C945B000C945B0094
:100020000C945B000C945B000C945B000C945B00E4
:100030000C945B000C945B000C945B000C945B00D4
:100040000C945B000C945B000C94A7030C945B0075
:100050000C945B000C945B000C945B000C945B00B4
:100060000C945B000C945B000C945B000C945B00A4
:100070000C945B000C945B000C945B0011241FBE7D
:10008000CFEFD8E0DEBFCDBF11E0A0E0B1E0E0ED02
:10009000F2E102C005900D92A635B107D9F721E033
:1000A000A6E5B1E001C01D92AA35B207E1F70E94B2
:1000B00022040C9466090C940000CF92DF92EF9218
:1000C000FF920F931F93CF93DF937C01C0E0D0E0AA
:1000D000C12CD12C00E010E00E948B038D3071F018
:1000E0008A30F9F09E012F5F3F4FF701EC0FFD1FA3
:1000F00080830115110529F4E901EECF9E0101E08D
:1001000010E0C114D104C1F3E901CE0DDF1D188246
:10011000DF91CF911F910F91FF90EF90DF90CF90E3
:1001200008950115110589F79E01CC24C394D12CA3
:10013000E3CF0F931F93CF93DF93CDB7DEB7C054B8
:10014000D1090FB6F894DEBF0FBECDBFCE01019628
:100150000E945D006AE370E0CE0101960E947A067B
:10016000009721F08C010F5F1F4F03C08E010F5FBE
:100170001F4F81E00E94FD02B80180E00E946803E9
:10018000C05CDF4F0FB6F894DEBF0FBECDBFDF916E
:10019000CF911F910F9108950F931F93CF93DF93EA
:1001A000EC0181E00E94FD02BE0180E00E94680334
:1001B0002FEF8DE399E4215080409040E1F700C09B
:1001C00000008E01FE0101900020E9F73197EC1B41
:1001D000FD0BC8018C1B9D0B8E179F0730F4F80197
:1001E00081918F010E948403EDCF8DE00E948403F2
:1001F0008AE00E9484030E949900FFEF2DE389E4C6
:10020000F15020408040E1F700C00000DF91CF9125
:100210001F910F9108950F931F93CF93DF93EC01DC
:100220008C01FE0101900020E9F73197EC1BFD0BDA
:10023000C8018C1B9D0B8E179F0730F4F80181912C
:100240008F010E948403EDCF8DE00E9484038AE039
:10025000DF91CF911F910F910C94840380E091E086
:100260000E945C038CE091E00E94CC008FE091E062
:100270000E94CC008AE191E00E94CC0082E291E0F1
:100280000C94CC00CF93DF93CDB7DEB7C054D10927
:100290000FB6F894DEBF0FBECDBF209A289889E331
:1002A00091E00E945C03CE0101960E945D0062E431
:1002B00071E0CE0101960E948506892B11F4289ADF
:1002C000F2CF65E471E0CE0101960E948506892B8C
:1002D00011F42898E8CF81E00E94FD02BE016F5F13
:1002E0007F4F80E00E946803DECFCF93DF93CDB7CE
:1002F000DEB764970FB6F894DEBF0FBECDBF0E9485
:10030000D40389E4E82E81E0F82E8E010F5F1F4FA1
:100310000E94EF030E943E057F936F93FF92EF923E
:100320001F930F930E948E066CE471E0C8010E9437
:100330006F0681E00E94FD02B80180E00E94680320
:100340002FEF84E39CE0215080409040E1F700C013
:1003500000000F900F900F900F900F900F90D8CF3C
:10036000CF93DF93CDB7DEB72A970FB6F894DEBFF1
:100370000FBECDBF60E571E080E00E94680380E4BD
:1003800080937C0085E880937A0080917C00826075
:1003900080937C0089E4E82E81E0F82E8E010F5FC7
:1003A0001F4F80917A00806480937A0080917A0058
:1003B00086FDFCCF609178007091790080E090E03C
:1003C0000E94740520E030E040EA50E40E940206FA
:1003D00020E030E040E85AE30E9402069B01AC01B5
:1003E00062E578EB8EE190E40E945F0422E538EB51
:1003F0004EE150E40E94CC0420E030E048EC52E4AE
:100400000E9402060E943E057F936F93FF92EF9237
:100410001F930F930E948E0681E00E94FD02B80197
:1004200080E00E9468032FEF82E597E02150804032
:100430009040E1F700C000000F900F900F900F90D8
:100440000F900F90AECFDF92EF92FF920F931F931A
:10045000CF93DF9387B1877887B988B1877888B9D8
:10046000179A00C000C046B1D6B096B1392F30728D
:1004700086B1179800C000C0179A00C000C096B19E
:10048000987006B116B156B1179800C000C027B1D8
:10049000286727B9932B56FBEE24E0F8F12C97013F
:1004A000292B90E1499FA001112440785527242B46
:1004B000352BD4FADD24D0F8CD2D90E0D92F96E05D
:1004C000CC0FDD1F9A95E1F72C2B3D2B86FBEE27F9
:1004D000E0F9F0E044E0EE0FFF1F4A95E1F72E2B24
:1004E0003F2B04FB662760F970E0660F771F660FED
:1004F000771F622B732B15FBAA27A0F9B0E0CD0163
:10050000880F991F862BDF91CF911F910F91FF903C
:10051000EF90DF9008951598169A00C000C00C94D3
:100520002302159A169A00C000C00C9423020E9460
:100530008B02881F8827881F08950E9497028111C7
:10054000FCCF08950F931F93CF93DF93179A28B191
:10055000C82F982F90722778292B982F991F9927A9
:10056000991F990F990F990F922B86FB002700F97D
:1005700010E024E0000F111F2A95E1F7092BA82FA6
:10058000A295A170B0E036E0AA0FBB1F3A95E1F743
:10059000A02BA8B900C000C0179800C000C0179ACF
:1005A00098B1282F28709778922BE82FE170F0E00F
:1005B00046E0EE0FFF1F4A95E1F7E92B82FB662725
:1005C00060F970E054E0660F771F5A95E1F76E2BE3
:1005D0004C2F4695417050E075E0440F551F7A95B9
:1005E000E1F7462B48B900C000C0179800C000C012
:1005F000DF91CF911F910F910895CF93DF931F92B9
:10060000CDB7DEB789830E949D021598169800C069
:1006100000C089810F90DF91CF910C94A2028AE1F2
:100620008A95F1F700C087B1886787B981B1806E7C
:1006300081B93A9A429A00C000C01598169800C035
:1006400000C000C000C088B18778806288B900C04F
:1006500000C0179800C000C088E20E94FD028FE031
:100660000E94FD0286E00E94FD0281E00C94FD02E2
:10067000CF93DF931F92CDB7DEB789830E949D028F
:10068000159A169800C000C089810F90DF91CF9114
:100690000C94A2020C943803CF93DF931F92CDB732
:1006A000DEB7805869830E94FD026981862F0F9012
:1006B000DF91CF910C943803CF93DF93EC018991B4
:1006C000882319F00E943803FACFDF91CF91089563
:1006D000CF93DF93EB0180680E94FD02CE01DF9192
:1006E000CF910C945C031092C50089E18093C40003
:1006F00088E18093C100E2ECF0E08081877F808315
:1007000080818660808308959091C00095FFFCCF22
:100710008093C60008958091C00087FFFCCF809130
:10072000C6000895CF93DF93EC018991882319F0D7
:100730000E948403FACFDF91CF9108959091C00079
:1007400095FFFCCF8093C60080E090E008951F9253
:100750000F920FB60F9211248F93809158018F5FE3
:10076000809358018F910F900FBE0F901F90189596
:100770001F920F920FB60F9211248F93019B04C00A
:1007800016BC109258010AC086B58093570180911B
:1007900058018093560181E0809359018F910F9009
:1007A0000FBE0F901F90189514BC15BCEEE6F0E03C
:1007B0001082789485B5846085BD80818160808356
:1007C000089A09981098E8E6F0E0808181608083BB
:1007D000EBE6F0E0108280818260808308951092C1
:1007E000590110988AE18A95F1F700C0109A9AE3AE
:1007F0009A95F1F700C01098809159018823E1F390
:1008000080915701609156019FEF699FB0011124BB
:10081000680F711D072E000C880B990B0E9476053E
:1008200020E030E040E851E40E94020626E933E48B
:100830004BE85CE30E94020620E030E0A9010E9440
:1008400060040895CF93DF93CDB7DEB72A970FB634
:10085000F894DEBF0FBECDBF0E940F030E9473034A
:100860002FEF83E294EF215080409040E1F700C0E9
:10087000000001E010E089E4C82E81E0D82ECE010E
:1008800001967C011F930F93DF92CF92FF92EF921C
:100890000E948E06C7010E940B019FEF23ED80E3AB
:1008A000915020408040E1F700C000000F900F9071
:1008B0000F900F900F900F900F5F1F4FE3CF505886
:1008C000BB27AA270E9477040C94C8050E94BA058A
:1008D00038F00E94C10520F039F49F3F19F426F446
:1008E0000C94B7050EF4E095E7FB0C94B105E92FE5
:1008F0000E94D90558F3BA17620773078407950752
:1009000020F079F4A6F50C94FB050EF4E0950B2E7F
:10091000BA2FA02D0B01B90190010C01CA01A00151
:100920001124FF27591B99F0593F50F4503E68F1AC
:100930001A16F040A22F232F342F4427585FF3CFED
:10094000469537952795A795F0405395C9F77EF4BE
:100950001F16BA0B620B730B840BBAF09150A1F007
:10096000FF0FBB1F661F771F881FC2F70EC0BA0F8D
:10097000621F731F841F48F4879577956795B79515
:10098000F7959E3F08F0B0CF9395880F08F0992710
:10099000EE0F9795879508950E94E0040C94C80582
:1009A0000E94C10558F00E94BA0540F029F45F3F4B
:1009B00029F00C94B10551110C94FC050C94B70569
:1009C0000E94D90568F39923B1F3552391F3951B40
:1009D000550BBB27AA2762177307840738F09F5F60
:1009E0005F4F220F331F441FAA1FA9F335D00E2ECD
:1009F0003AF0E0E832D091505040E695001CCAF73A
:100A00002BD0FE2F29D0660F771F881FBB1F2617FC
:100A100037074807AB07B0E809F0BB0B802DBF01D3
:100A2000FF2793585F4F3AF09E3F510578F00C94A2
:100A3000B1050C94FC055F3FE4F3983ED4F3869532
:100A400077956795B795F7959F5FC9F7880F911DC3
:100A50009695879597F90895E1E0660F771F881FAF
:100A6000BB1F621773078407BA0720F0621B730B62
:100A7000840BBA0BEE1F88F7E09508950E94450598
:100A80006894B1110C94FC0508950E94E10588F06A
:100A90009F5798F0B92F9927B751B0F0E1F0660F42
:100AA000771F881F991F1AF0BA95C9F714C0B13083
:100AB00091F00E94FB05B1E008950C94FB05672FAF
:100AC000782F8827B85F39F0B93FCCF386957795B2
:100AD0006795B395D9F73EF490958095709561959B
:100AE0007F4F8F4F9F4F0895E89409C097FB3EF4C6
:100AF00090958095709561957F4F8F4F9F4F99236B
:100B0000A9F0F92F96E9BB279395F69587957795E8
:100B10006795B795F111F8CFFAF4BB0F11F460FFA8
:100B20001BC06F5F7F4F8F4F9F4F16C0882311F000
:100B300096E911C0772321F09EE8872F762F05C014
:100B4000662371F096E8862F70E060E02AF09A95AF
:100B5000660F771F881FDAF7880F9695879597F9A4
:100B6000089597F99F6780E870E060E008959FEF2F
:100B700080EC089500240A94161617061806090634
:100B8000089500240A941216130614060506089503
:100B9000092E0394000C11F4882352F0BB0F40F48B
:100BA000BF2B11F460FF04C06F5F7F4F8F4F9F4FCB
:100BB000089557FD9058440F551F59F05F3F71F04D
:100BC0004795880F97FB991F61F09F3F79F08795B4
:100BD0000895121613061406551FF2CF4695F1DF3D
:100BE00008C0161617061806991FF1CF86957105CD
:100BF000610508940895E894BB2766277727CB0101
:100C000097F908950E9415060C94C8050E94BA052C
:100C100038F00E94C10520F0952311F00C94B10525
:100C20000C94B70511240C94FC050E94D90570F3AF
:100C3000959FC1F3950F50E0551F629FF001729F81
:100C4000BB27F00DB11D639FAA27F00DB11DAA1F90
:100C5000649F6627B00DA11D661F829F2227B00DDD
:100C6000A11D621F739FB00DA11D621F839FA00D68
:100C7000611D221F749F3327A00D611D231F849FB8
:100C8000600D211D822F762F6A2F11249F5750400F
:100C90009AF0F1F088234AF0EE0FFF1FBB1F661F8A
:100CA000771F881F91505040A9F79E3F510580F053
:100CB0000C94B1050C94FC055F3FE4F3983ED4F32B
:100CC000869577956795B795F795E7959F5FC1F7F7
:100CD000FE2B880F911D9695879597F90895FB0136
:100CE000DC010D900020E9F7119701900D92002092
:100CF000E1F70895FC018191861721F08823D9F747
:100D0000992708953197CF010895FB01DC018D915A
:100D1000019080190110D9F3990B0895AEE0B0E06D
:100D2000E4E9F6E00C943D090D891E8986E08C8388
:100D30001A8309838FEF9FE79E838D83AE01475E01
:100D40005F4F6F89788DCE0101960E94B1062F8189
:100D50003885F801E20FF31F10822E96E4E00C9420
:100D60005909ACE0B0E0E7EBF6E00C942F097C0108
:100D70006B018A01FC0117821682838181FFBDC14C
:100D8000CE0101964C01F7019381F60193FD859107
:100D900093FF81916F01882309F4ABC1853239F447
:100DA00093FD859193FF81916F01853229F4B701FD
:100DB00090E00E949908E7CF512C312C20E020329E
:100DC000A0F48B3269F030F4803259F0833269F448
:100DD00020612CC08D3239F0803339F4216026C077
:100DE0002260246023C0286021C027FD27C030ED89
:100DF000380F3A3078F426FF06C0FAE05F9E300DD7
:100E00001124532E13C08AE0389E300D1124332E46
:100E100020620CC08E3221F426FD6BC1206406C016
:100E20008C3611F4206802C0883641F4F60193FD37
:100E3000859193FF81916F018111C1CF982F9F7D83
:100E40009554933028F40C5F1F4FFFE3F9830DC0D6
:100E5000833631F0833771F0833509F05BC022C0EF
:100E6000F801808189830E5F1F4F44244394512CE5
:100E7000540115C03801F2E06F0E711CF801A0801A
:100E8000B18026FF03C0652D70E002C06FEF7FEFD9
:100E9000C5012C870E948E082C0183012C852F7799
:100EA000222E17C03801F2E06F0E711CF801A080ED
:100EB000B18026FF03C0652D70E002C06FEF7FEFA9
:100EC000C5012C870E9483082C012C852068222EC6
:100ED000830123FC1BC0832D90E048165906B0F413
:100EE000B70180E290E00E9499083A94F4CFF501AE
:100EF00027FC859127FE81915F01B70190E00E9458
:100F0000990831103A94F1E04F1A510841145104F4
:100F100071F7E5C0843611F0893639F5F80127FFFD
:100F200007C060817181828193810C5F1F4F08C06F
:100F300060817181072E000C880B990B0E5F1F4F8B
:100F40002F76722E97FF09C09095809570956195C8
:100F50007F4F8F4F9F4F2068722E2AE030E0A40110
:100F60000E94D108A82EA81844C0853729F42F7EE6
:100F7000B22E2AE030E025C0F22FF97FBF2E8F3647
:100F8000C1F018F4883579F0B4C0803719F088378B
:100F900021F0AFC02F2F2061B22EB4FE0DC08B2DDB
:100FA0008460B82E09C024FF0AC09F2F9660B92E16
:100FB00006C028E030E005C020E130E002C020E1BA
:100FC00032E0F801B7FE07C06081718182819381B0
:100FD0000C5F1F4F06C06081718180E090E00E5F62
:100FE0001F4FA4010E94D108A82EA818FB2DFF773F
:100FF0007F2E76FE0BC0372D3E7FA51450F474FE75
:101000000AC072FC08C0372D3E7E05C0BA2C372DB1
:1010100003C0BA2C01C0B52C34FF0DC0FE01EA0D8F
:10102000F11D8081803311F4397E09C032FF06C082
:10103000B394B39404C0832F867809F0B39433FD3E
:1010400013C030FF06C05A2CB31418F4530C5B18AD
:10105000B32CB31468F4B70180E290E03C870E949F
:101060009908B3943C85F5CFB31410F43B1801C034
:10107000312C34FF12C0B70180E390E03C870E941E
:1010800099083C8532FF17C031FD03C088E790E026
:1010900002C088E590E0B7010CC0832F867859F034
:1010A00031FF02C08BE201C080E237FD8DE2B70163
:1010B00090E00E949908A51438F4B70180E390E00D
:1010C0000E9499085A94F7CFAA94F401EA0DF11DF1
:1010D0008081B70190E00E949908A110F5CF3320DC
:1010E00009F451CEB70180E290E00E9499083A9449
:1010F000F6CFF7018681978102C08FEF9FEF2C9684
:10110000E2E10C944B09FC01059061507040011024
:10111000D8F7809590958E0F9F1F0895FC01615020
:10112000704001900110D8F7809590958E0F9F1F09
:1011300008950F931F93CF93DF93FB01238121FD2C
:1011400003C08FEF9FEF28C022FF16C04681578152
:10115000248135814217530744F4A081B1819D0158
:101160002F5F3F4F318320838C93268137812F5F00
:101170003F4F3783268310C0EB01092F182F0084BF
:10118000F185E02D0995892BE1F68E819F810196ED
:101190009F838E83812F902FDF91CF911F910F918D
:1011A0000895FA01AA27283051F1203181F1E894FD
:1011B0006F936E7F6E5F7F4F8F4F9F4FAF4FB1E04A
:1011C0003ED0B4E03CD0670F781F891F9A1FA11D45
:1011D000680F791F8A1F911DA11D6A0F711D811D46
:1011E000911DA11D20D009F468943F912AE0269F0B
:1011F00011243019305D3193DEF6CF010895462F6A
:101200004770405D4193B3E00FD0C9F7F6CF462F4A
:101210004F70405D4A3318F0495D31FD40524193B3
:1012200002D0A9F7EACFB4E0A69597958795779570
:101230006795BA95C9F700976105710508959B01F7
:10124000AC010A2E06945795479537952795BA9580
:10125000C9F7620F731F841F951FA01D08952F9259
:101260003F924F925F926F927F928F929F92AF9236
:10127000BF92CF92DF92EF92FF920F931F93CF9383
:10128000DF93CDB7DEB7CA1BDB0B0FB6F894DEBF1A
:101290000FBECDBF09942A88398848885F846E8440
:1012A0007D848C849B84AA84B984C884DF80EE808A
:1012B000FD800C811B81AA81B981CE0FD11D0FB693
:1012C000F894DEBF0FBECDBFED010895F894FFCFB7
:1012D0005374617274696E672E2E2E004154004162
:1012E000542B434D4F44453D300041542B494E490A
:1012F000540041542B4C494E4B3D393864332C3308
:10130000312C666434343730005374617274696E02
:1013100067006F6E006F66660025640020636D00D5
:06132000436C65616E00E4
:00000001FF
