:100000000C943E000C9453000C9453000C94530039
:100010000C9453000C9453000C9453000C94530014
:100020000C9453000C9453000C9453000C94530004
:100030000C9453000C9453000C9453000C945300F4
:100040000C9453000C9453000C9453000C945300E4
:100050000C9453000C9453000C9453000C945300D4
:100060000C9453000C9453000C9453000C945300C4
:100070000C9453000C9453000C94530011241FBE95
:10008000CFEFD8E0DEBFCDBF11E0A0E0B1E0E0E10E
:10009000FCE002C005900D92AA33B107D9F70E9487
:1000A00022030C9406060C940000CF92DF92EF928C
:1000B000FF920F931F93CF93DF937C01C0E0D0E0BA
:1000C000C12CD12C00E010E00E94B6018D3071F0FF
:1000D0008A30F9F09E012F5F3F4FF701EC0FFD1FB3
:1000E00080830115110529F4E901EECF9E0101E09D
:1000F00010E0C114D104C1F3E901CE0DDF1D188257
:10010000DF91CF911F910F91FF90EF90DF90CF90F3
:1001100008950115110589F79E01CC24C394D12CB3
:10012000E3CFCF93DF93CDB7DEB7C054D1090FB67D
:10013000F894DEBF0FBECDBFCE0101960E945500E0
:1001400081E00E94AC02BE016F5F7F4F80E00E94A1
:100150001703C05CDF4F0FB6F894DEBF0FBECDBFF4
:10016000DF91CF9108950F931F93CF93DF93EC010D
:1001700081E00E94AC02BE0180E00E9417032FEFD5
:1001800089E698E1215080409040E1F700C00000EE
:100190008E01FE0101900020E9F73197EC1BFD0B69
:1001A000C8018C1B9D0B8E179F0730F4F8018191BD
:1001B0008F010E94AF01EDCF8DE00E94AF018AE078
:1001C0000E94AF010E949100FFEF29E688E1F15003
:1001D00020408040E1F700C00000DF91CF911F91E7
:1001E0000F91089580E091E00E94B30083E091E0D8
:1001F0000E94B3008BE091E00C94B3000F931F9327
:10020000CF93DF93EC0181E00E94AC02BE0180E05D
:100210000E9417032FEF89E698E12150804090401B
:10022000E1F700C000008E01FE0101900020E9F717
:100230003197EC1BFD0BC8018C1B9D0B8E179F0784
:1002400030F4F80181918F010E94AF01EDCF8DE074
:100250000E94AF018AE00E94AF01FFEF29E688E12A
:10026000F15020408040E1F700C00000DF91CF91C5
:100270001F910F910895CF93DF93CDB7DEB7C05490
:10028000D1090FB6F894DEBF0FBECDBF0E949E010C
:10029000209A28980E94F20062E271E080E00E94B9
:1002A00017032FEF83E294EF215080409040E1F755
:1002B00000C0000087E291E00E94B300E12CF12C25
:1002C00080E3C82E81E0D82E8E010F5F1F4FFF9272
:1002D000EF92DF92CF921F930F930E942E03C801DB
:1002E0000E94FE002FEF89E698E121508040904067
:1002F000E1F700C000002FEFE21AF20A0F900F9012
:100300000F900F900F900F9080E1E81687E2F806AB
:10031000F1F6C8010E94550063E371E0C8010E9434
:100320002503892B11F4289AF4CF66E371E0C80104
:100330000E942503892B69F72898EBCF1092C500FE
:1003400089E18093C40088E18093C100E2ECF0E091
:100350008081877F808380818660808308959091EB
:10036000C00095FFFCCF8093C60008958091C00027
:1003700087FFFCCF8091C6000895CF93DF93EC01F7
:100380008991882319F00E94AF01FACFDF91CF91B4
:1003900008959091C00095FFFCCF8093C60080E047
:1003A00090E00895DF92EF92FF920F931F93CF9307
:1003B000DF9387B1877887B988B1877888B9179A2A
:1003C00000C000C046B1D6B096B1392F307286B1A8
:1003D000179800C000C0179A00C000C096B198706E
:1003E00006B116B156B1179800C000C027B12867F2
:1003F00027B9932B56FBEE24E0F8F12C9701292B1B
:1004000090E1499FA001112440785527242B352BDA
:10041000D4FADD24D0F8CD2D90E0D92F96E0CC0F82
:10042000DD1F9A95E1F72C2B3D2B86FBEE27E0F99B
:10043000F0E044E0EE0FFF1F4A95E1F72E2B3F2B33
:1004400004FB662760F970E0660F771F660F771F61
:10045000622B732B15FBAA27A0F9B0E0CD01880F02
:10046000991F862BDF91CF911F910F91FF90EF90F5
:10047000DF9008951598169A00C000C00C94D20120
:10048000159A169A00C000C00C94D2010E943A023C
:10049000881F8827881F08950E9446028111FCCF7B
:1004A00008950F931F93CF93DF93179A28B1C82F06
:1004B000982F90722778292B982F991F9927991F89
:1004C000990F990F990F922B86FB002700F910E0E6
:1004D00024E0000F111F2A95E1F7092BA82FA29500
:1004E000A170B0E036E0AA0FBB1F3A95E1F7A02B50
:1004F000A8B900C000C0179800C000C0179A98B1F2
:10050000282F28709778922BE82FE170F0E046E0D2
:10051000EE0FFF1F4A95E1F7E92B82FB662760F992
:1005200070E054E0660F771F5A95E1F76E2B4C2F61
:100530004695417050E075E0440F551F7A95E1F7FC
:10054000462B48B900C000C0179800C000C0DF911A
:10055000CF911F910F910895CF93DF931F92CDB745
:10056000DEB789830E944C021598169800C000C01F
:1005700089810F90DF91CF910C9451028AE18A9585
:10058000F1F700C087B1886787B981B1806E81B902
:100590003A9A429A00C000C01598169800C000C050
:1005A00000C000C088B18778806288B900C000C0F0
:1005B000179800C000C088E20E94AC028FE00E9441
:1005C000AC0286E00E94AC0281E00C94AC02CF93B6
:1005D000DF931F92CDB7DEB789830E944C02159A34
:1005E000169800C000C089810F90DF91CF910C94C4
:1005F00051020C94E702CF93DF931F92CDB7DEB781
:10060000805869830E94AC026981862F0F90DF9128
:10061000CF910C94E702CF93DF93EC01899188236B
:1006200019F00E94E702FACFDF91CF910895CF939E
:10063000DF93EB0180680E94AC02CE01DF91CF9185
:100640000C940B030E94BE02FFCFFB01DC018D91D5
:10065000019080190110D9F3990B0895AEE0B0E034
:10066000E4E3F3E00C94DD050D891E8986E08C83BC
:100670001A8309838FEF9FE79E838D83AE01475EC8
:100680005F4F6F89788DCE0101960E9451032F81B3
:100690003885F801E20FF31F10822E96E4E00C94E7
:1006A000F905ACE0B0E0E7E5F3E00C94CF057C01A0
:1006B0006B018A01FC0117821682838181FFBDC113
:1006C000CE0101964C01F7019381F60193FD8591CE
:1006D00093FF81916F01882309F4ABC1853239F40E
:1006E00093FD859193FF81916F01853229F4B701C4
:1006F00090E00E943905E7CF512C312C20E02032C8
:10070000A0F48B3269F030F4803259F0833269F40E
:1007100020612CC08D3239F0803339F4216026C03D
:100720002260246023C0286021C027FD27C030ED4F
:10073000380F3A3078F426FF06C0FAE05F9E300D9D
:100740001124532E13C08AE0389E300D1124332E0D
:1007500020620CC08E3221F426FD6BC1206406C0DD
:100760008C3611F4206802C0883641F4F60193FDFE
:10077000859193FF81916F018111C1CF982F9F7D4A
:100780009554933028F40C5F1F4FFFE3F9830DC09D
:10079000833631F0833771F0833509F05BC022C0B6
:1007A000F801808189830E5F1F4F44244394512CAC
:1007B000540115C03801F2E06F0E711CF801A080E1
:1007C000B18026FF03C0652D70E002C06FEF7FEFA0
:1007D000C5012C870E942E052C0183012C852F77C3
:1007E000222E17C03801F2E06F0E711CF801A080B4
:1007F000B18026FF03C0652D70E002C06FEF7FEF70
:10080000C5012C870E9423052C012C852068222EEF
:10081000830123FC1BC0832D90E048165906B0F4D9
:10082000B70180E290E00E9439053A94F4CFF501D7
:1008300027FC859127FE81915F01B70190E00E941E
:10084000390531103A94F1E04F1A5108411451041E
:1008500071F7E5C0843611F0893639F5F80127FFC4
:1008600007C060817181828193810C5F1F4F08C036
:1008700060817181072E000C880B990B0E5F1F4F52
:100880002F76722E97FF09C090958095709561958F
:100890007F4F8F4F9F4F2068722E2AE030E0A401D7
:1008A0000E947105A82EA81844C0853729F42F7E10
:1008B000B22E2AE030E025C0F22FF97FBF2E8F360E
:1008C000C1F018F4883579F0B4C0803719F0883752
:1008D00021F0AFC02F2F2061B22EB4FE0DC08B2DA2
:1008E0008460B82E09C024FF0AC09F2F9660B92EDD
:1008F00006C028E030E005C020E130E002C020E181
:1009000032E0F801B7FE07C0608171818281938176
:100910000C5F1F4F06C06081718180E090E00E5F28
:100920001F4FA4010E947105A82EA818FB2DFF7768
:100930007F2E76FE0BC0372D3E7FA51450F474FE3B
:100940000AC072FC08C0372D3E7E05C0BA2C372D78
:1009500003C0BA2C01C0B52C34FF0DC0FE01EA0D56
:10096000F11D8081803311F4397E09C032FF06C049
:10097000B394B39404C0832F867809F0B39433FD05
:1009800013C030FF06C05A2CB31418F4530C5B1874
:10099000B32CB31468F4B70180E290E03C870E9466
:1009A0003905B3943C85F5CFB31410F43B1801C05E
:1009B000312C34FF12C0B70180E390E03C870E94E5
:1009C00039053C8532FF17C031FD03C088E790E050
:1009D00002C088E590E0B7010CC0832F867859F0FB
:1009E00031FF02C08BE201C080E237FD8DE2B7012A
:1009F00090E00E943905A51438F4B70180E390E037
:100A00000E9439055A94F7CFAA94F401EA0DF11D1A
:100A10008081B70190E00E943905A110F5CF332005
:100A200009F451CEB70180E290E00E9439053A9472
:100A3000F6CFF7018681978102C08FEF9FEF2C964A
:100A4000E2E10C94EB05FC0105906150704001104F
:100A5000D8F7809590958E0F9F1F0895FC016150E7
:100A6000704001900110D8F7809590958E0F9F1FD0
:100A700008950F931F93CF93DF93FB01238121FDF3
:100A800003C08FEF9FEF28C022FF16C04681578119
:100A9000248135814217530744F4A081B1819D011F
:100AA0002F5F3F4F318320838C93268137812F5FC7
:100AB0003F4F3783268310C0EB01092F182F008486
:100AC000F185E02D0995892BE1F68E819F810196B4
:100AD0009F838E83812F902FDF91CF911F910F9154
:100AE0000895FA01AA27283051F1203181F1E894C4
:100AF0006F936E7F6E5F7F4F8F4F9F4FAF4FB1E011
:100B00003ED0B4E03CD0670F781F891F9A1FA11D0B
:100B1000680F791F8A1F911DA11D6A0F711D811D0C
:100B2000911DA11D20D009F468943F912AE0269FD1
:100B300011243019305D3193DEF6CF010895462F30
:100B40004770405D4193B3E00FD0C9F7F6CF462F11
:100B50004F70405D4A3318F0495D31FD405241937A
:100B600002D0A9F7EACFB4E0A69597958795779537
:100B70006795BA95C9F700976105710508959B01BE
:100B8000AC010A2E06945795479537952795BA9547
:100B9000C9F7620F731F841F951FA01D08952F9220
:100BA0003F924F925F926F927F928F929F92AF92FD
:100BB000BF92CF92DF92EF92FF920F931F93CF934A
:100BC000DF93CDB7DEB7CA1BDB0B0FB6F894DEBFE1
:100BD0000FBECDBF09942A88398848885F846E8407
:100BE0007D848C849B84AA84B984C884DF80EE8051
:100BF000FD800C811B81AA81B981CE0FD11D0FB65A
:100C0000F894DEBF0FBECDBFED010895F894FFCF7D
:100C100041540041542B494E49540041542B4C49F6
:100C20004E4B3D393864332C33312C6664343437C1
:100C30003000444F4E450041542B5245534554001B
:0A0C40002564006F6E006F66660009
:00000001FF
