:100000000C943E000C945B000C945B000C945B0021
:100010000C945B000C945B000C945B000C945B00F4
:100020000C945B000C945B000C945B000C945B00E4
:100030000C945B000C945B000C945B000C945B00D4
:100040000C945B000C945B000C945B000C945B00C4
:100050000C945B000C945B000C945B000C945B00B4
:100060000C945B000C945B000C945B000C945B00A4
:100070000C945B000C945B000C945B0011241FBE7D
:10008000CFEFD8E0DEBFCDBF11E0A0E0B1E0E4E407
:10009000F3E102C005900D92AE34B107D9F721E02B
:1000A000AEE4B1E001C01D92AC35B207E1F70E94A9
:1000B00005070C94A0090C9400002098289A5598E4
:1000C0005D9A089589B182958695877091E0892718
:1000D000817090E0089518990DC02FEF86E791E0A8
:1000E000215080409040E1F700C0000083B180952E
:1000F000817001C080E090E00895DF92EF92FF925E
:100100000F931F93CF93DF9387B1877887B988B117
:10011000877888B9179A00C000C046B1D6B096B1AA
:10012000392F307286B1179800C000C0179A00C0EE
:1001300000C096B1987006B116B156B1179800C0BC
:1001400000C027B1286727B9932B56FBEE24E0F8AF
:10015000F12C9701292B90E1499FA00111244078AF
:100160005527242B352BD4FADD24D0F8CD2D90E063
:10017000D92F96E0CC0FDD1F9A95E1F72C2B3D2B64
:1001800086FBEE27E0F9F0E044E0EE0FFF1F4A9512
:10019000E1F72E2B3F2B04FB662760F970E0660F1A
:1001A000771F660F771F622B732B15FBAA27A0F909
:1001B000B0E0CD01880F991F862BDF91CF911F9161
:1001C0000F91FF90EF90DF9008951598169A00C058
:1001D00000C00C947D00159A169A00C000C00C94C3
:1001E0007D000E94E500881F8827881F08950E94CF
:1001F000F1008111FCCF08950F931F93CF93DF93EC
:10020000179A28B1C82F982F90722778292B982FEA
:10021000991F9927991F990F990F990F922B86FB78
:10022000002700F910E024E0000F111F2A95E1F7E4
:10023000092BA82FA295A170B0E036E0AA0FBB1F32
:100240003A95E1F7A02BA8B900C000C0179800C0EC
:1002500000C0179A98B1282F28709778922BE82F12
:10026000E170F0E046E0EE0FFF1F4A95E1F7E92B61
:1002700082FB662760F970E054E0660F771F5A959D
:10028000E1F76E2B4C2F4695417050E075E0440F1E
:10029000551F7A95E1F7462B48B900C000C0179862
:1002A00000C000C0DF91CF911F910F910895CF93AF
:1002B000DF931F92CDB7DEB789830E94F7001598B0
:1002C000169800C000C089810F90DF91CF910C94E7
:1002D000FC008AE18A95F1F700C087B1886787B989
:1002E00081B1806E81B93A9A429A00C000C01598D7
:1002F000169800C000C000C000C088B18778806236
:1003000088B900C000C0179800C000C088E20E94F1
:1003100057018FE00E94570186E00E94570181E05B
:100320000C945701CF93DF931F92CDB7DEB789832B
:100330000E94F700159A169800C000C089810F909E
:10034000DF91CF910C94FC0081E00C9457010C9448
:100350009201CF93DF931F92CDB7DEB780586983A8
:100360000E9457016981862F0F90DF91CF910C94E5
:100370009201CF93DF93EC018991882319F00E94B9
:100380009201FACFDF91CF910895CF93DF93EB01E4
:1003900080680E945701CE01DF91CF910C94B90182
:1003A0001092C50089E18093C40088E18093C10068
:1003B000E2ECF0E08081877F8083808186608083AB
:1003C00008959091C00095FFFCCF8093C6000895DA
:1003D0008091C00087FFFCCF8091C6000895CF9325
:1003E000DF93EC018991882319F00E94E101FACF93
:1003F000DF91CF9108959091C00095FFFCCF80933D
:10040000C60080E090E008958F929F92AF92BF92D5
:10041000CF92DF92EF92FF920F931F93CF93DF93D0
:100420006C015B01C0E0D0E0812C912CE12CF12C1F
:100430008E010F5F1F4F0A151B0500F50E94E80192
:100440008D3051F08A3089F0F601EC0FFD1F80836A
:10045000E114F10489F004C08E01EE24E394F12C40
:100460008114910449F0E80109C0E114F10431F468
:100470008E0188248394912CE801DACFCC0DDD1D08
:100480001882DF91CF911F910F91FF90EF90DF9035
:10049000CF90BF90AF909F908F9008950F931F9330
:1004A000CF93DF93FC0101900020E9F7EC018F016D
:1004B00001501109C017D10721F089910E94E10173
:1004C000F9CF8DE00E94E1018AE0DF91CF911F9189
:1004D0000F910C94E1010F931F93CF93DF9300D002
:1004E0001F92CDB7DEB72FEF83E294EF215080400B
:1004F0009040E1F700C0000083E589831A828E01F5
:100500000F5F1F4FC8010E944E02198263E070E026
:10051000C8010E9404028981843549F4F8010190E0
:100520000020E9F7CF0102978017910709F0FFCF6C
:1005300085E58983C8010E944E020F900F900F90AD
:10054000DF91CF911F910F910895FF920F931F9309
:10055000CF93DF9300D01F92CDB7DEB7529A5A984F
:1005600063E070E08E010F5F1F4FC8010E9404021C
:10057000F80101900020E9F7CF0102978017910759
:1005800009F0FFCFF98081E08F0D8983C8010E94B7
:100590004E028FEF898363E070E0C8010E9404027D
:1005A0002981022E000C330B8F2DFF0C990B029624
:1005B0002817390749F4F80101900020E9F7CF0125
:1005C00002978017910709F0FFCF5A9A0F900F906A
:1005D0000F90DF91CF911F910F91FF9008958F920F
:1005E0009F92AF92BF92CF92DF92FF920F931F9391
:1005F000CF93DF9300D0CDB7DEB7182FF62E80ED66
:1006000049835A830E94C305812F0E94500685E3C7
:100610008A95F1F7000081ED0E94C3054981842E7F
:100620005A81952ECF2CD12C00E010E05601E1E04C
:10063000AE1AB1080C151D0581F00A151B0519F439
:100640000E94880602C00E947006F40180830F5F3A
:100650001F4FFFEF8F1A9F0AEDCF0E9441068F2D8B
:100660000F900F90DF91CF911F910F91FF90DF902E
:10067000CF90BF90AF909F908F900895EF92FF9290
:100680000F931F93CF93DF9300D0CDB7DEB7082F22
:10069000162F80ED49835A830E94C305802F0E9444
:1006A00050064981042FE42E5A81F52E8E2D801B91
:1006B000811730F4F70181917F010E945006F6CF37
:1006C0000F900F90DF91CF911F910F91FF90EF90BE
:1006D0000C94410661110C94EF0280E00895AB0187
:1006E00061E00C94EF0261110C943E030895CF93E6
:1006F000DF931F92CDB7DEB76983AE014F5F5F4FC7
:1007000061E00E943E030F90DF91CF910895FF9228
:100710000F931F93CF93DF9300D0CDB7DEB7082F91
:10072000162FF42E1982BE016F5F7F4F2A830E941D
:100730006F032A81882309F1E12FF0E0EF19F10915
:10074000319641E050E002C0440F551FFA94E2F7A1
:10075000415051090E2E01C0440F0A94EAF701C01E
:10076000220FEA95EAF7642F609589816823422376
:10077000642B6983802F0E9477030F900F90DF9185
:10078000CF911F910F91FF900895EF92FF920F93D9
:100790001F93CF93DF931F92CDB7DEB7442349F168
:1007A0008901E42EF62EBE016F5F7F4F0E946F031A
:1007B000882301F16F2D70E06E1971096F5F7F4F13
:1007C00041E050E002C0440F551FEA94E2F7415067
:1007D0005109062E01C0440F0A94EAF79981492372
:1007E00050E002C0559547956A95E2F7F8014083BD
:1007F00001C080E00F90DF91CF911F910F91FF908A
:10080000EF900895FF920F931F93CF93DF931F9262
:10081000CDB7DEB7F62E8A01BE016F5F7F4F0E9413
:100820006F0321E030E001C0220FFA94EAF79981CA
:100830002923F80120830F90DF91CF911F910F9111
:10084000FF90089541110C94870308950F931F930F
:10085000CF93DF9300D0CDB7DEB7182F062FBE01A0
:100860006F5F7F4F4A830E946F0399814A814423BF
:1008700041F061E070E001C0660F0A95EAF7692B6C
:1008800009C021E030E0B90101C0660F0A95EAF71E
:10089000609569236983812F0E9477030F900F90E1
:1008A000DF91CF911F910F91089540E066E08BE6B4
:1008B0000C94260441E066E08BE60C9426042EE4BA
:1008C00031E046E066E085E70E94C50390914E0165
:1008D00081E0943309F080E008950E94BD0525E38E
:1008E0002A95F1F700008FEF91EE24E081509040BF
:1008F0002040E1F700C000000E9455048FE39CE90E
:100900000197F1F700C0000021E043E062E08BE6D0
:100910000E94870323E043E062E08AE10E948703AC
:1009200064E089E10E94770323E042E064E08BE128
:100930000E94870320E042E064E08CE10C9487038E
:100940008F929F92AF92BF92CF92DF92EF92FF92DF
:100950000F931F93CF93DF935C014B016A01E90171
:100960004EE451E06EE08BE30E946A03EEE4F1E0B6
:100970002081818190E0922BD5018D939C932281DF
:10098000838190E0922BD4018D939C932481858167
:1009900090E0922BD6018D939C932085818590E0E9
:1009A000922B998388832285838590E0922BD801AE
:1009B0008D939C932485858590E0922BF7019183FC
:1009C0008083DF91CF911F910F91FF90EF90DF9087
:1009D000CF90BF90AF909F908F9008952F923F92AD
:1009E0004F925F926F927F928F929F92AF92BF923F
:1009F000CF92DF92EF92FF920F931F93CF93DF93EB
:100A0000CDB7DEB72C970FB6F894DEBF0FBECDBFC3
:100A10003C014B015A016901280117011C861B8604
:100A20001A86198618861F821E821D821C821B82CE
:100A30001A821982CE0101967C018E010D5F1F4F33
:100A40009E012B5F3F4FAE01495F5F4FBE01675F65
:100A50007F4F0A960E94A0046B857C85072E000CB0
:100A6000880B990B0E94A70820E030E040E858E38B
:100A70000E943309F30160837183828393836985C4
:100A80007A85072E000C880B990B0E94A70820E09E
:100A900030E040E858E30E943309F4016083718339
:100AA000828393836F817885072E000C880B990BC6
:100AB0000E94A70820E030E040E858E30E94330994
:100AC000F50160837183828393836D817E81665D8E
:100AD0007F4F072E000C880B990B0E94A70823E379
:100AE00033E343E851E40E94FD07F601608371831C
:100AF000828393836B817C8169507109072E000C7E
:100B0000880B990B0E94A70823E333E343E851E4E1
:100B10000E94FD07F2016083718382839383698160
:100B20007A81635E7F4F072E000C880B990B0E9421
:100B3000A70823E333E343E851E40E94FD07F101F2
:100B400060837183828393832C960FB6F894DEBF03
:100B50000FBECDBFDF91CF911F910F91FF90EF900E
:100B6000DF90CF90BF90AF909F908F907F906F90CD
:100B70005F904F903F902F9008951092B9008CE0B5
:100B80008093B800089594EA9093BC004FEF50E032
:100B900060E070E09091BC0097FD28C04150510981
:100BA00061097109B8F79091B900987F983021F0E8
:100BB000903111F081E008958093BB0084E8809328
:100BC000BC008FEF90E0A0E0B0E02091BC0027FDDA
:100BD00012C00197A109B109C0F78091B900887FBF
:100BE000883111F0803431F780E00895452B462B91
:100BF000472B01F3D8CF892B8A2B8B2BD9F2EDCF42
:100C000044EA54E864E94093BC0020E030E090916D
:100C1000BC0097FD06C02F5F3F4F211591E03907BB
:100C2000B1F79091B900987F983011F0903159F751
:100C30008093BB005093BC0020E030E09091BC005A
:100C400097FD06C02F5F3F4F211591E03907B1F79F
:100C50009091B900987F903211F0983579F46093B3
:100C6000BC0020E030E09091BC0094FFCCCF2F5F1F
:100C70003F4F211591E03907B1F7C5CF08950C9486
:100C8000C30584E98093BC0080E090E02091BC0023
:100C900024FF05C00196811521E09207B9F7089558
:100CA0008093BB0084E88093BC008FEF90E0A0E0CD
:100CB000B0E02091BC0027FD0CC00197A109B1094B
:100CC000C0F79091B900987F81E0983241F480E0BC
:100CD0000895892B8A2B8B2BA1F781E00895089525
:100CE00084EC8093BC008FEF90E0A0E0B0E0209116
:100CF000BC0027FD07C00197A109B109C0F7809189
:100D0000BB000895892B8A2B8B2BC9F780E00895AF
:100D100084E88093BC008FEF90E0A0E0B0E02091E9
:100D2000BC0027FD07C00197A109B109C0F7809158
:100D3000BB000895892B8A2B8B2BC9F780E008957F
:100D400090917C00907E90937C0090917C00892B08
:100D500080937C0080917A00806480937A008091F7
:100D60007A0086FDFCCF609178007091790080E078
:100D700090E00E94A50820E030E040EA50E40E94A4
:100D8000330920E030E040E85AE30E943309089537
:100D900080E480937C0085E880937A00089580E069
:100DA0000E94A0069B01AC016EEA77E481E290E428
:100DB0000E94900722E538EB4EE150E40E94FD07C7
:100DC00020E030E048EC52E40E9433090E946F08B2
:100DD000862F089581E00E94A0069B01AC0160E08F
:100DE00070E080E290E40E94900722E538EB4EE14B
:100DF00050E40E94FD0720E030E048EC52E40E94FD
:100E000033090E946F08862F08950E945D000E949A
:100E100069010E94D0010E946B020E94C8060E94D4
:100E20006D042FEF80E792E0215080409040E1F781
:100E300000C000000E94A40160E071E080E00E9418
:100E4000C50160E171E088E20E94C5012FEF83EDEA
:100E500090E3215080409040E1F700C00000C0E0E6
:100E6000D0E001E010E00E946200892B29F1C80166
:100E70008C1B9D0BEC0180E291E00E944E0284E20B
:100E800091E00E944E0284E291E00E944E020E9494
:100E9000A401209719F466E271E002C067E371E0F3
:100EA00080E00E94C5019FEF23ED80E39150204038
:100EB0008040E1F700C000000E946B00892B31F1F7
:100EC00081E491E00E944E0286E491E00E944E028D
:100ED0008FE39CE90197F1F700C0000080E291E008
:100EE0000E944E0284E291E00E944E0284E291E070
:100EF0000E944E020E946B00892BE1F781E491E091
:100F00000E944E0289E491E00E944E029FEF23EC82
:100F100089E0915020408040E1F700C00000A3CF5D
:100F20005058BB27AA270E94A8070C94F9080E94D2
:100F3000EB0838F00E94F20820F039F49F3F19F4D2
:100F400026F40C94E8080EF4E095E7FB0C94E20814
:100F5000E92F0E940A0958F3BA176207730784073A
:100F6000950720F079F4A6F50C942C090EF4E09581
:100F70000B2EBA2FA02D0B01B90190010C01CA0153
:100F8000A0011124FF27591B99F0593F50F4503EFE
:100F900068F11A16F040A22F232F342F4427585FF0
:100FA000F3CF469537952795A795F0405395C9F708
:100FB0007EF41F16BA0B620B730B840BBAF09150C0
:100FC000A1F0FF0FBB1F661F771F881FC2F70EC05F
:100FD000BA0F621F731F841F48F487957795679532
:100FE000B795F7959E3F08F0B0CF9395880F08F01E
:100FF0009927EE0F9795879508950E9411080C94F4
:10100000F9080E94F20858F00E94EB0840F029F419
:101010005F3F29F00C94E20851110C942D090C94B7
:10102000E8080E940A0968F39923B1F3552391F364
:10103000951B550BBB27AA2762177307840738F047
:101040009F5F5F4F220F331F441FAA1FA9F335D0A4
:101050000E2E3AF0E0E832D091505040E695001C58
:10106000CAF72BD0FE2F29D0660F771F881FBB1F12
:10107000261737074807AB07B0E809F0BB0B802DF0
:10108000BF01FF2793585F4F3AF09E3F510578F01C
:101090000C94E2080C942D095F3FE4F3983ED4F3DE
:1010A000869577956795B795F7959F5FC9F7880FF0
:1010B000911D9695879597F90895E1E0660F771F42
:1010C000881FBB1F621773078407BA0720F0621BD3
:1010D000730B840BBA0BEE1F88F7E09508950E94FE
:1010E00076086894B1110C942D0908950E94120994
:1010F00088F09F5798F0B92F9927B751B0F0E1F0D9
:10110000660F771F881F991F1AF0BA95C9F714C088
:10111000B13091F00E942C09B1E008950C942C0993
:10112000672F782F8827B85F39F0B93FCCF38695C1
:1011300077956795B395D9F73EF49095809570951E
:1011400061957F4F8F4F9F4F0895E89409C097FB9B
:101150003EF490958095709561957F4F8F4F9F4F8E
:101160009923A9F0F92F96E9BB279395F6958795D2
:1011700077956795B795F111F8CFFAF4BB0F11F495
:1011800060FF1BC06F5F7F4F8F4F9F4F16C088233C
:1011900011F096E911C0772321F09EE8872F762F72
:1011A00005C0662371F096E8862F70E060E02AF0B3
:1011B0009A95660F771F881FDAF7880F969587959F
:1011C00097F9089597F99F6780E870E060E00895C7
:1011D0009FEF80EC089500240A941616170618064F
:1011E0000906089500240A9412161306140605062B
:1011F0000895092E0394000C11F4882352F0BB0FBC
:1012000040F4BF2B11F460FF04C06F5F7F4F8F4F1E
:101210009F4F089557FD9058440F551F59F05F3F59
:1012200071F04795880F97FB991F61F09F3F79F008
:1012300087950895121613061406551FF2CF46958A
:10124000F1DF08C0161617061806991FF1CF86950C
:101250007105610508940895E894BB2766277727F0
:10126000CB0197F908950E9446090C94F9080E9451
:10127000EB0838F00E94F20820F0952311F00C944E
:10128000E2080C94E80811240C942D090E940A0924
:1012900070F3959FC1F3950F50E0551F629FF001C9
:1012A000729FBB27F00DB11D639FAA27F00DB11DE2
:1012B000AA1F649F6627B00DA11D661F829F22276B
:1012C000B00DA11D621F739FB00DA11D621F839FF2
:1012D000A00D611D221F749F3327A00D611D231FC8
:1012E000849F600D211D822F762F6A2F11249F5716
:1012F00050409AF0F1F088234AF0EE0FFF1FBB1F19
:10130000661F771F881F91505040A9F79E3F5105D7
:1013100080F00C94E2080C942D095F3FE4F3983EB2
:10132000D4F3869577956795B795F795E7959F5F81
:10133000C1F7FE2B880F911D9695879597F9089513
:04134000F894FFCF4F
:10134400557365206A6F79737469636B20746F00D9
:10135400636F6E74726F6C207468652063617200D1
:101364004341520030004A6F79737469636B20659E
:101374006E61626C656400526F74617465205243DF
:0E13840000484F524E004F4E004F46460000AC
:00000001FF
