:100000000C943E000C9453000C9453000C94530039
:100010000C9453000C9453000C9453000C94530014
:100020000C9453000C9453000C9453000C94530004
:100030000C9453000C9453000C9453000C945300F4
:100040000C9453000C9453000C9453000C945300E4
:100050000C9453000C9453000C9453000C945300D4
:100060000C9453000C9453000C9453000C945300C4
:100070000C9453000C9453000C94530011241FBE95
:10008000CFEFD8E0DEBFCDBF11E0A0E0B1E0E2EEFF
:10009000F0E102C005900D92A830B107D9F70E9497
:1000A00029030C946F080C940000DF92EF92FF92EA
:1000B0000F931F93CF93DF9387B1877887B988B168
:1000C000877888B9179A00C000C046B1D6B096B1FB
:1000D000392F307286B1179800C000C0179A00C03F
:1000E00000C096B1987006B116B156B1179800C00D
:1000F00000C027B1286727B9932B56FBEE24E0F800
:10010000F12C9701292B90E1499FA00111244078FF
:100110005527242B352BD4FADD24D0F8CD2D90E0B3
:10012000D92F96E0CC0FDD1F9A95E1F72C2B3D2BB4
:1001300086FBEE27E0F9F0E044E0EE0FFF1F4A9562
:10014000E1F72E2B3F2B04FB662760F970E0660F6A
:10015000771F660F771F622B732B15FBAA27A0F959
:10016000B0E0CD01880F991F862BDF91CF911F91B1
:100170000F91FF90EF90DF9008951598169A00C0A8
:1001800000C00C945500159A169A00C000C00C943B
:1001900055000E94BD00881F8827881F08950E946F
:1001A000C9008111FCCF08950F931F93CF93DF9364
:1001B000179A28B1C82F982F90722778292B982F3B
:1001C000991F9927991F990F990F990F922B86FBC9
:1001D000002700F910E024E0000F111F2A95E1F735
:1001E000092BA82FA295A170B0E036E0AA0FBB1F83
:1001F0003A95E1F7A02BA8B900C000C0179800C03D
:1002000000C0179A98B1282F28709778922BE82F62
:10021000E170F0E046E0EE0FFF1F4A95E1F7E92BB1
:1002200082FB662760F970E054E0660F771F5A95ED
:10023000E1F76E2B4C2F4695417050E075E0440F6E
:10024000551F7A95E1F7462B48B900C000C01798B2
:1002500000C000C0DF91CF911F910F910895CF93FF
:10026000DF931F92CDB7DEB789830E94CF00159828
:10027000169800C000C089810F90DF91CF910C9437
:10028000D4008AE18A95F1F700C087B1886787B901
:1002900081B1806E81B93A9A429A00C000C0159827
:1002A000169800C000C000C000C088B18778806286
:1002B00088B900C000C0179800C000C088E20E9442
:1002C0002F018FE00E942F0186E00E942F0181E024
:1002D0000C942F01CF93DF931F92CDB7DEB78983A4
:1002E0000E94CF00159A169800C000C089810F9017
:1002F000DF91CF910C94D4000C946A01CF93DF93DB
:100300001F92CDB7DEB7805869830E942F016981A3
:10031000862F0F90DF91CF910C946A01CF93DF93DA
:10032000EC018991882319F00E946A01FACFDF91CC
:10033000CF910895CF93DF93EB0180680E942F0146
:10034000CE01DF91CF910C948E011092C50089E10E
:100350008093C40088E18093C100E2ECF0E08081EA
:10036000877F808380818660808308959091C0001C
:1003700095FFFCCF8093C60008958091C00087FF51
:10038000FCCF8091C6000895CF93DF93EC01899153
:10039000882319F00E94B601FACFDF91CF9108951A
:1003A0009091C00095FFFCCF8093C60080E090E064
:1003B00008958F929F92AF92BF92CF92DF92EF9269
:1003C000FF920F931F93CF93DF936C015B01C0E00B
:1003D000D0E0812C912CE12CF12C8E010F5F1F4F6E
:1003E0000A151B0500F50E94BD018D3051F08A30C1
:1003F00089F0F601EC0FFD1F8083E114F10489F010
:1004000004C08E01EE24E394F12C8114910449F090
:10041000E80109C0E114F10431F48E0188248394C9
:10042000912CE801DACFCC0DDD1D1882DF91CF9140
:100430001F910F91FF90EF90DF90CF90BF90AF9002
:100440009F908F9008950F931F93CF93DF93FC019C
:1004500001900020E9F7EC018F0101501109C0174C
:10046000D10721F089910E94B601F9CF8DE00E9459
:10047000B6018AE0DF91CF911F910F910C94B601E4
:100480000F931F93CF93DF9300D01F92CDB7DEB7AA
:100490002FEF83E294EF215080409040E1F700C0BD
:1004A000000083E589831A828E010F5F1F4FC80108
:1004B0000E942302198263E070E0C8010E94D90102
:1004C0008981843549F4F80101900020E9F7CF01D2
:1004D00002978017910709F0FFCF85E58983C8014E
:1004E0000E9423020F900F900F90DF91CF911F91E8
:1004F0000F910895FF920F931F93CF93DF9300D036
:100500001F92CDB7DEB7529A5A9863E070E08E0121
:100510000F5F1F4FC8010E94D901F8010190002010
:10052000E9F7CF0102978017910709F0FFCFF98013
:1005300081E08F0D8983C8010E9423028FEF898398
:1005400063E070E0C8010E94D9012981022E000CED
:10055000330B8F2DFF0C990B02962817390749F49E
:10056000F80101900020E9F7CF0102978017910769
:1005700009F0FFCF5A9A0F900F900F90DF91CF9113
:100580001F910F91FF90089590917C00907E909321
:100590007C0090917C00892B80937C0080917A0074
:1005A000806480937A0080917A0086FDFCCF609110
:1005B00078007091790080E090E00E949C0420E037
:1005C00030E040EA50E40E942A0520E030E040E8B4
:1005D0005AE30E942A05089580E480937C0085E810
:1005E00080937A00089580E00E94C4029B01AC01D0
:1005F0006EEA77E481E290E40E94870322E538EB1B
:100600004EE150E40E94F40320E030E048EC52E474
:100610000E942A050E946604862F089581E00E94A8
:10062000C4029B01AC0160E070E080E290E40E94B3
:10063000870322E538EB4EE150E40E94F40320E00A
:1006400030E048EC52E40E942A050E946604862F9E
:100650000895CF93DF93CDB7DEB764970FB6F894C4
:10066000DEBF0FBECDBF0E9441010E94A5010E94C6
:1006700040020E94EC0280E0E82E81E0F82E8E011C
:10068000055F1F4FCE0101966C011B8619820E94E7
:10069000F302282F082E000C330B3F938F93FF9209
:1006A000EF921F930F930E9497050E940E03282F2D
:1006B000082E000C330B3F938F93FF92EF92DF9243
:1006C000CF920E94970581E00E942F01B80180E03F
:1006D0000E949A01B60188E20E949A0183E091E0AB
:1006E0000E942302C8010E942302C6010E94230225
:1006F0009FEF22E587E0915020408040E1F700C065
:1007000000000FB6F894DEBF0FBECDBFBECF50586D
:10071000BB27AA270E949F030C94F0040E94E204C6
:1007200038F00E94E90420F039F49F3F19F426F4D0
:100730000C94DF040EF4E095E7FB0C94D904E92F48
:100740000E94010558F3BA176207730784079507DB
:1007500020F079F4A6F50C9423050EF4E0950B2E09
:10076000BA2FA02D0B01B90190010C01CA01A00103
:100770001124FF27591B99F0593F50F4503E68F15E
:100780001A16F040A22F232F342F4427585FF3CF9F
:10079000469537952795A795F0405395C9F77EF470
:1007A0001F16BA0B620B730B840BBAF09150A1F0B9
:1007B000FF0FBB1F661F771F881FC2F70EC0BA0F3F
:1007C000621F731F841F48F4879577956795B795C7
:1007D000F7959E3F08F0B0CF9395880F08F09927C2
:1007E000EE0F9795879508950E9408040C94F004E5
:1007F0000E94E90458F00E94E20440F029F45F3FAF
:1008000029F00C94D90451110C9424050C94DF04A4
:100810000E94010568F39923B1F3552391F3951BC9
:10082000550BBB27AA2762177307840738F09F5F11
:100830005F4F220F331F441FAA1FA9F335D00E2E7E
:100840003AF0E0E832D091505040E695001CCAF7EB
:100850002BD0FE2F29D0660F771F881FBB1F2617AE
:1008600037074807AB07B0E809F0BB0B802DBF0185
:10087000FF2793585F4F3AF09E3F510578F00C9454
:10088000D9040C9424055F3FE4F3983ED4F3869595
:1008900077956795B795F7959F5FC9F7880F911D75
:1008A0009695879597F90895E1E0660F771F881F61
:1008B000BB1F621773078407BA0720F0621B730B14
:1008C000840BBA0BEE1F88F7E09508950E946D0423
:1008D0006894B1110C94240508950E94090588F0CC
:1008E0009F5798F0B92F9927B751B0F0E1F0660FF4
:1008F000771F881F991F1AF0BA95C9F714C0B13035
:1009000091F00E942305B1E008950C942305672F10
:10091000782F8827B85F39F0B93FCCF38695779563
:100920006795B395D9F73EF490958095709561954C
:100930007F4F8F4F9F4F0895E89409C097FB3EF477
:1009400090958095709561957F4F8F4F9F4F99231C
:10095000A9F0F92F96E9BB279395F695879577959A
:100960006795B795F111F8CFFAF4BB0F11F460FF5A
:100970001BC06F5F7F4F8F4F9F4F16C0882311F0B2
:1009800096E911C0772321F09EE8872F762F05C0C6
:10099000662371F096E8862F70E060E02AF09A9561
:1009A000660F771F881FDAF7880F9695879597F956
:1009B000089597F99F6780E870E060E008959FEFE1
:1009C00080EC089500240A941616170618060906E6
:1009D000089500240A9412161306140605060895B5
:1009E000092E0394000C11F4882352F0BB0F40F43D
:1009F000BF2B11F460FF04C06F5F7F4F8F4F9F4F7D
:100A0000089557FD9058440F551F59F05F3F71F0FE
:100A10004795880F97FB991F61F09F3F79F0879565
:100A20000895121613061406551FF2CF4695F1DFEE
:100A300008C0161617061806991FF1CF869571057E
:100A4000610508940895E894BB2766277727CB01B2
:100A500097F908950E943D050C94F0040E94E20469
:100A600038F00E94E90420F0952311F00C94D90489
:100A70000C94DF0411240C9424050E94010570F3EA
:100A8000959FC1F3950F50E0551F629FF001729F33
:100A9000BB27F00DB11D639FAA27F00DB11DAA1F42
:100AA000649F6627B00DA11D661F829F2227B00D8F
:100AB000A11D621F739FB00DA11D621F839FA00D1A
:100AC000611D221F749F3327A00D611D231F849F6A
:100AD000600D211D822F762F6A2F11249F575040C1
:100AE0009AF0F1F088234AF0EE0FFF1FBB1F661F3C
:100AF000771F881F91505040A9F79E3F510580F005
:100B00000C94D9040C9424055F3FE4F3983ED4F38D
:100B1000869577956795B795F795E7959F5FC1F7A8
:100B2000FE2B880F911D9695879597F90895AEE055
:100B3000B0E0EDE9F5E00C9446080D891E8986E0E9
:100B40008C831A8309838FEF9FE79E838D83AE0189
:100B5000475E5F4F6F89788DCE0101960E94BA057E
:100B60002F813885F801E20FF31F10822E96E4E002
:100B70000C946208ACE0B0E0E0ECF5E00C943808CE
:100B80007C016B018A01FC0117821682838181FF3F
:100B9000BDC1CE0101964C01F7019381F60193FD91
:100BA000859193FF81916F01882309F4ABC1853250
:100BB00039F493FD859193FF81916F01853229F47A
:100BC000B70190E00E94A207E7CF512C312C20E022
:100BD0002032A0F48B3269F030F4803259F0833245
:100BE00069F420612CC08D3239F0803339F42160F2
:100BF00026C02260246023C0286021C027FD27C0B2
:100C000030ED380F3A3078F426FF06C0FAE05F9EE8
:100C1000300D1124532E13C08AE0389E300D11245C
:100C2000332E20620CC08E3221F426FD6BC120646D
:100C300006C08C3611F4206802C0883641F4F601F3
:100C400093FD859193FF81916F018111C1CF982F01
:100C50009F7D9554933028F40C5F1F4FFFE3F98379
:100C60000DC0833631F0833771F0833509F05BC0F6
:100C700022C0F801808189830E5F1F4F4424439472
:100C8000512C540115C03801F2E06F0E711CF801AF
:100C9000A080B18026FF03C0652D70E002C06FEF19
:100CA0007FEFC5012C870E9497072C0183012C85BB
:100CB0002F77222E17C03801F2E06F0E711CF80159
:100CC000A080B18026FF03C0652D70E002C06FEFE9
:100CD0007FEFC5012C870E948C072C012C85206892
:100CE000222E830123FC1BC0832D90E04816590659
:100CF000B0F4B70180E290E00E94A2073A94F4CFEA
:100D0000F50127FC859127FE81915F01B70190E0F5
:100D10000E94A20731103A94F1E04F1A5108411491
:100D2000510471F7E5C0843611F0893639F5F801C0
:100D300027FF07C060817181828193810C5F1F4F03
:100D400008C060817181072E000C880B990B0E5F23
:100D50001F4F2F76722E97FF09C090958095709542
:100D600061957F4F8F4F9F4F2068722E2AE030E0B1
:100D7000A4010E94DA07A82EA81844C0853729F4D8
:100D80002F7EB22E2AE030E025C0F22FF97FBF2E51
:100D90008F36C1F018F4883579F0B4C0803719F077
:100DA000883721F0AFC02F2F2061B22EB4FE0DC0C6
:100DB0008B2D8460B82E09C024FF0AC09F2F966037
:100DC000B92E06C028E030E005C020E130E002C0C6
:100DD00020E132E0F801B7FE07C0608171818281B5
:100DE00093810C5F1F4F06C06081718180E090E0AD
:100DF0000E5F1F4FA4010E94DA07A82EA818FB2D32
:100E0000FF777F2E76FE0BC0372D3E7FA51450F462
:100E100074FE0AC072FC08C0372D3E7E05C0BA2C95
:100E2000372D03C0BA2C01C0B52C34FF0DC0FE0114
:100E3000EA0DF11D8081803311F4397E09C032FF43
:100E400006C0B394B39404C0832F867809F0B3949A
:100E500033FD13C030FF06C05A2CB31418F4530CE2
:100E60005B18B32CB31468F4B70180E290E03C87C0
:100E70000E94A207B3943C85F5CFB31410F43B183D
:100E800001C0312C34FF12C0B70180E390E03C87F1
:100E90000E94A2073C8532FF17C031FD03C088E7DE
:100EA00090E002C088E590E0B7010CC0832F8678FF
:100EB00059F031FF02C08BE201C080E237FD8DE2C4
:100EC000B70190E00E94A207A51438F4B70180E3AF
:100ED00090E00E94A2075A94F7CFAA94F401EA0D79
:100EE000F11D8081B70190E00E94A207A110F5CF0B
:100EF000332009F451CEB70180E290E00E94A207AE
:100F00003A94F6CFF7018681978102C08FEF9FEF69
:100F10002C96E2E10C945408FC010590615070405D
:100F20000110D8F7809590958E0F9F1F0895FC01B2
:100F30006150704001900110D8F7809590958E0F08
:100F40009F1F08950F931F93CF93DF93FB0123817E
:100F500021FD03C08FEF9FEF28C022FF16C04681FE
:100F60005781248135814217530744F4A081B18110
:100F70009D012F5F3F4F318320838C9326813781E2
:100F80002F5F3F4F3783268310C0EB01092F182FA7
:100F90000084F185E02D0995892BE1F68E819F81F2
:100FA00001969F838E83812F902FDF91CF911F9188
:100FB0000F910895FA01AA27283051F1203181F1CB
:100FC000E8946F936E7F6E5F7F4F8F4F9F4FAF4F51
:100FD000B1E03ED0B4E03CD0670F781F891F9A1F64
:100FE000A11D680F791F8A1F911DA11D6A0F711D18
:100FF000811D911DA11D20D009F468943F912AE024
:10100000269F11243019305D3193DEF6CF0108950B
:10101000462F4770405D4193B3E00FD0C9F7F6CF3C
:10102000462F4F70405D4A3318F0495D31FD405204
:10103000419302D0A9F7EACFB4E0A695979587959A
:1010400077956795BA95C9F7009761057105089579
:101050009B01AC010A2E0694579547953795279525
:10106000BA95C9F7620F731F841F951FA01D0895BD
:101070002F923F924F925F926F927F928F929F92A8
:10108000AF92BF92CF92DF92EF92FF920F931F9396
:10109000CF93DF93CDB7DEB7CA1BDB0B0FB6F89447
:1010A000DEBF0FBECDBF09942A88398848885F8487
:1010B0006E847D848C849B84AA84B984C884DF80F8
:1010C000EE80FD800C811B81AA81B981CE0FD11DDC
:1010D0000FB6F894DEBF0FBECDBFED010895F894B2
:0210E000FFCF40
:0810E2002564004341520000A7
:00000001FF
