:100000000C943E000C945B000C945B000C945B0021
:100010000C945B000C945B000C945B000C945B00F4
:100020000C945B000C945B000C945B000C945B00E4
:100030000C945B000C945B000C945B000C945B00D4
:100040000C945B000C945B000C945B000C945B00C4
:100050000C945B000C945B000C945B000C945B00B4
:100060000C945B000C945B000C945B000C945B00A4
:100070000C945B000C945B000C945B0011241FBE7D
:10008000CFEFD8E0DEBFCDBF11E0A0E0B1E0ECECF7
:10009000FBE102C005900D92A236B107D9F721E02D
:1000A000A2E6B1E001C01D92A037B207E1F70E94BD
:1000B00014080C94E40D0C9400002098289A55988C
:1000C0005D9A089589B182958695877091E0892718
:1000D000817090E0089518990DC02FEF86E791E0A8
:1000E000215080409040E1F700C0000083B180952E
:1000F000817001C080E090E00895AF92BF92CF92EE
:10010000DF92EF92FF920F931F93CF93DF93CDB7C0
:10011000DEB768970FB6F894DEBF0FBECDBFB82E1E
:10012000A92ED62EC72ECE0101967C018E010B5F23
:100130001F4F9E01275F3F4FAE01435F5F4FBE01E0
:100140006F5E7F4F44960E94FD0520E030E048EC52
:1001500052E46D897E898F89988D0E949F0A0E9442
:10016000DB096536710514F064E670E06C399FEFC9
:10017000790714F46CE97FEF7F936F9321E031E00E
:100180003F932F93AF92BF920E940C0B20E030E080
:1001900048EC52E469897A898B899C890E949F0A7C
:1001A0000E94DB097195619571096536710514F03E
:1001B00064E670E06C398FEF780714F46CE97FEF38
:1001C0007F936F9380E091E09F938F93CF92DF9224
:1001D0000E940C0B0FB6F894DEBF0FBECDBF689621
:1001E0000FB6F894DEBF0FBECDBFDF91CF911F9148
:1001F0000F91FF90EF90DF90CF90BF90AF90089558
:10020000AF92BF92CF92DF92EF92FF920F931F9324
:10021000CF93DF93CDB7DEB768970FB6F894DEBF04
:100220000FBECDBFB82EA92ED62EC72ECE01019659
:100230007C018E010B5F1F4F9E01275F3F4FAE0178
:10024000435F5F4FBE016F5E7F4F44960E94FD0586
:1002500020E030E048EC52E46D897E898F89988DEA
:100260000E949F0A0E94DB096536710514F064E65E
:1002700070E06C399FEF790714F46CE97FEF7F939E
:100280006F9301E011E01F930F93AF92BF920E9412
:100290000C0B89899A89AB89BC89BC01CD01905826
:1002A00020E030E048EC52E40E949F0A0E94DB0903
:1002B0000F900F900F900F900F900F90633D8FEF66
:1002C000780724F48FEF8F938EEC05C06E327105A2
:1002D00024F01F9282E38F9302C01F921F921F93FC
:1002E0000F93CF92DF920E940C0B0F900F900F9004
:1002F0000F900F900F9068960FB6F894DEBF0FBE68
:10030000CDBFDF91CF911F910F91FF90EF90DF90C4
:10031000CF90BF90AF900895DF92EF92FF920F932E
:100320001F93CF93DF9387B1877887B988B1877898
:1003300088B9179A00C000C046B1D6B096B1392F1F
:10034000307286B1179800C000C0179A00C000C074
:1003500096B1987006B116B156B1179800C000C09A
:1003600027B1286727B9932B56FBEE24E0F8F12C30
:100370009701292B90E1499FA0011124407855272E
:10038000242B352BD4FADD24D0F8CD2D90E0D92FB5
:1003900096E0CC0FDD1F9A95E1F72C2B3D2B86FBC9
:1003A000EE27E0F9F0E044E0EE0FFF1F4A95E1F799
:1003B0002E2B3F2B04FB662760F970E0660F771F3A
:1003C000660F771F622B732B15FBAA27A0F9B0E0ED
:1003D000CD01880F991F862BDF91CF911F910F912F
:1003E000FF90EF90DF9008951598169A00C000C016
:1003F0000C948C01159A169A00C000C00C948C01C4
:100400000E94F401881F8827881F08950E94000217
:100410008111FCCF08950F931F93CF93DF93179A09
:1004200028B1C82F982F90722778292B982F991FC1
:100430009927991F990F990F990F922B86FB0027E7
:1004400000F910E024E0000F111F2A95E1F7092BB5
:10045000A82FA295A170B0E036E0AA0FBB1F3A9575
:10046000E1F7A02BA8B900C000C0179800C000C0D9
:10047000179A98B1282F28709778922BE82FE1705F
:10048000F0E046E0EE0FFF1F4A95E1F7E92B82FB13
:10049000662760F970E054E0660F771F5A95E1F720
:1004A0006E2B4C2F4695417050E075E0440F551F60
:1004B0007A95E1F7462B48B900C000C0179800C0F4
:1004C00000C0DF91CF911F910F910895CF93DF93DB
:1004D0001F92CDB7DEB789830E9406021598169841
:1004E00000C000C089810F90DF91CF910C940B0266
:1004F0008AE18A95F1F700C087B1886787B981B131
:10050000806E81B93A9A429A00C000C01598169838
:1005100000C000C000C000C088B18778806288B980
:1005200000C000C0179800C000C088E20E946602A8
:100530008FE00E94660286E00E94660281E00C94D1
:100540006602CF93DF931F92CDB7DEB789830E94F7
:100550000602159A169800C000C089810F90DF919D
:10056000CF910C940B0281E00C9466020C94A102D2
:10057000CF93DF931F92CDB7DEB7805869830E9477
:1005800066026981862F0F90DF91CF910C94A102B2
:10059000CF93DF93EC018991882319F00E94A10287
:1005A000FACFDF91CF910895CF93DF93EB0180686D
:1005B0000E946602CE01DF91CF910C94C802109286
:1005C000C50089E18093C40088E18093C100E2EC1A
:1005D000F0E08081877F80838081866080830895BA
:1005E0009091C00095FFFCCF8093C6000895809144
:1005F000C00087FFFCCF8091C6000895CF93DF93A2
:10060000EC018991882319F00E94F002FACFDF9162
:10061000CF9108959091C00095FFFCCF8093C600C4
:1006200080E090E008958F929F92AF92BF92CF9218
:10063000DF92EF92FF920F931F93CF93DF936C01A2
:100640005B01C0E0D0E0812C912CE12CF12C8E01DB
:100650000F5F1F4F0A151B0500F50E94F7028D3032
:1006600051F08A3089F0F601EC0FFD1F8083E11410
:10067000F10489F004C08E01EE24E394F12C81147E
:10068000910449F0E80109C0E114F10431F48E014C
:1006900088248394912CE801DACFCC0DDD1D1882DB
:1006A000DF91CF911F910F91FF90EF90DF90CF904E
:1006B000BF90AF909F908F9008950F931F93CF930B
:1006C000DF93FC0101900020E9F7EC018F0101505C
:1006D0001109C017D10721F089910E94F002F9CFCA
:1006E0008DE00E94F0028AE0DF91CF911F910F917F
:1006F0000C94F0020F931F93CF93DF9300D01F92BF
:10070000CDB7DEB72FEF83E294EF215080409040C9
:10071000E1F700C0000083E589831A828E010F5F34
:100720001F4FC8010E945D03198263E070E0C80199
:100730000E9413038981843549F4F8010190002057
:10074000E9F7CF0102978017910709F0FFCF85E500
:100750008983C8010E945D030F900F900F90DF9175
:10076000CF911F910F910895FF920F931F93CF93F5
:10077000DF9300D01F92CDB7DEB7529A5A9863E04C
:1007800070E08E010F5F1F4FC8010E941303F80134
:1007900001900020E9F7CF0102978017910709F037
:1007A000FFCFF98081E08F0D8983C8010E945D032E
:1007B0008FEF898363E070E0C8010E9413032981F1
:1007C000022E000C330B8F2DFF0C990B029628176D
:1007D000390749F4F80101900020E9F7CF010297A9
:1007E0008017910709F0FFCF5A9A0F900F900F9042
:1007F000DF91CF911F910F91FF9008958F929F925B
:10080000AF92BF92CF92DF92FF920F931F93CF933D
:10081000DF9300D0CDB7DEB7182FF62E80ED4983D9
:100820005A830E94D206812F0E945F0785E38A9532
:10083000F1F7000081ED0E94D2064981842E5A8191
:10084000952ECF2CD12C00E010E05601E1E0AE1A3D
:10085000B1080C151D0581F00A151B0519F40E943D
:10086000970702C00E947F07F40180830F5F1F4F2C
:10087000FFEF8F1A9F0AEDCF0E9450078F2D0F9028
:100880000F90DF91CF911F910F91FF90DF90CF904C
:10089000BF90AF909F908F900895EF92FF920F932B
:1008A0001F93CF93DF9300D0CDB7DEB7082F162F5D
:1008B00080ED49835A830E94D206802F0E945F07F1
:1008C0004981042FE42E5A81F52E8E2D801B81172D
:1008D00030F4F70181917F010E945F07F6CF0F90FE
:1008E0000F90DF91CF911F910F91FF90EF900C949B
:1008F000500761110C94FE0380E00895AB0161E0A4
:100900000C94FE0361110C944D040895CF93DF9372
:100910001F92CDB7DEB76983AE014F5F5F4F61E0D5
:100920000E944D040F90DF91CF910895FF920F9395
:100930001F93CF93DF9300D0CDB7DEB7082F162FCC
:10094000F42E1982BE016F5F7F4F2A830E947E04BE
:100950002A81882309F1E12FF0E0EF19F10931969E
:1009600041E050E002C0440F551FFA94E2F74150B5
:1009700051090E2E01C0440F0A94EAF701C0220F5C
:10098000EA95EAF7642F6095898168234223642BF6
:100990006983802F0E9486040F900F90DF91CF9182
:1009A0001F910F91FF900895EF92FF920F931F9365
:1009B000CF93DF931F92CDB7DEB7442349F189016E
:1009C000E42EF62EBE016F5F7F4F0E947E048823C7
:1009D00001F16F2D70E06E1971096F5F7F4F41E07B
:1009E00050E002C0440F551FEA94E2F7415051090C
:1009F000062E01C0440F0A94EAF79981492350E07A
:100A000002C0559547956A95E2F7F801408301C009
:100A100080E00F90DF91CF911F910F91FF90EF90A9
:100A20000895FF920F931F93CF93DF931F92CDB73B
:100A3000DEB7F62E8A01BE016F5F7F4F0E947E04F3
:100A400021E030E001C0220FFA94EAF799812923CE
:100A5000F80120830F90DF91CF911F910F91FF90AC
:100A6000089541110C94960408950F931F93CF930A
:100A7000DF9300D0CDB7DEB7182F062FBE016F5F12
:100A80007F4F4A830E947E0499814A81442341F02A
:100A900061E070E001C0660F0A95EAF7692B09C0B2
:100AA00021E030E0B90101C0660F0A95EAF76095D0
:100AB00069236983812F0E9486040F900F90DF9134
:100AC000CF911F910F91089540E066E08BE60C9462
:100AD000350541E066E08BE60C94350522E631E011
:100AE00046E066E085E70E94D4049091620181E0CF
:100AF000943309F080E008950E94CC0625E32A95FE
:100B0000F1F700008FEF91EE24E0815090402040FB
:100B1000E1F700C000000E9464058FE39CE90197A3
:100B2000F1F700C0000021E043E062E08BE60E94A4
:100B3000960423E043E062E08AE10E94960464E0C8
:100B400089E10E94860423E042E064E08BE10E9498
:100B5000960420E042E064E08CE10C9496048F92CD
:100B60009F92AF92BF92CF92DF92EF92FF920F933C
:100B70001F93CF93DF935C014B016A01E90142E6C9
:100B800051E06EE08BE30E947904E2E6F1E020811F
:100B9000818190E0922BD5018D939C93228183815A
:100BA00090E0922BD4018D939C932481858190E0D9
:100BB000922BD6018D939C932085818590E0922B7A
:100BC000998388832285838590E0922BD8018D9329
:100BD0009C932485858590E0922BF70191838083F7
:100BE000DF91CF911F910F91FF90EF90DF90CF9009
:100BF000BF90AF909F908F9008952F923F924F9209
:100C00005F926F927F928F929F92AF92BF92CF929C
:100C1000DF92EF92FF920F931F93CF93DF93CDB7A5
:100C2000DEB72C970FB6F894DEBF0FBECDBF3C01E8
:100C30004B015A016901280117011C861B861A867F
:100C4000198618861F821E821D821C821B821A82B0
:100C50001982CE0101967C018E010D5F1F4F9E010E
:100C60002B5F3F4FAE01495F5F4FBE01675F7F4F14
:100C70000A960E94AF056B857C85072E000C880BB9
:100C8000990B0E94130A20E030E040E858E30E94EC
:100C90009F0AF301608371838283938369857A85D8
:100CA000072E000C880B990B0E94130A20E030E0FD
:100CB00040E858E30E949F0AF401608371838283B5
:100CC00093836F817885072E000C880B990B0E9407
:100CD000130A20E030E040E858E30E949F0AF50143
:100CE00060837183828393836D817E81665D7F4F94
:100CF000072E000C880B990B0E94130A23E333E3A1
:100D000043E851E40E946909F6016083718382839C
:100D100093836B817C8169507109072E000C880BCD
:100D2000990B0E94130A23E333E343E851E40E9442
:100D30006909F201608371838283938369817A8177
:100D4000635E7F4F072E000C880B990B0E94130ADD
:100D500023E333E343E851E40E946909F10160832E
:100D60007183828393832C960FB6F894DEBF0FBEF7
:100D7000CDBFDF91CF911F910F91FF90EF90DF904A
:100D8000CF90BF90AF909F908F907F906F905F902B
:100D90004F903F902F9008951092B9008CE080936F
:100DA000B800089594EA9093BC004FEF50E060E0E3
:100DB00070E09091BC0097FD28C041505109610935
:100DC0007109B8F79091B900987F983021F090316F
:100DD00011F081E008958093BB0084E88093BC000B
:100DE0008FEF90E0A0E0B0E02091BC0027FD12C0A2
:100DF0000197A109B109C0F78091B900887F8831B6
:100E000011F0803431F780E00895452B462B472BB5
:100E100001F3D8CF892B8A2B8B2BD9F2EDCF44EA63
:100E200054E864E94093BC0020E030E09091BC00BD
:100E300097FD06C02F5F3F4F211591E03907B1F7AD
:100E40009091B900987F983011F0903159F78093C4
:100E5000BB005093BC0020E030E09091BC0097FDB7
:100E600006C02F5F3F4F211591E03907B1F79091F0
:100E7000B900987F903211F0983579F46093BC00F6
:100E800020E030E09091BC0094FFCCCF2F5F3F4F2B
:100E9000211591E03907B1F7C5CF08950C94D2061A
:100EA00084E98093BC0080E090E02091BC0024FFA6
:100EB00005C00196811521E09207B9F70895809346
:100EC000BB0084E88093BC008FEF90E0A0E0B0E02E
:100ED0002091BC0027FD0CC00197A109B109C0F702
:100EE0009091B900987F81E0983241F480E00895B4
:100EF000892B8A2B8B2BA1F781E00895089584EC30
:100F00008093BC008FEF90E0A0E0B0E02091BC00A7
:100F100027FD07C00197A109B109C0F78091BB0067
:100F20000895892B8A2B8B2BC9F780E0089584E8DC
:100F30008093BC008FEF90E0A0E0B0E02091BC0077
:100F400027FD07C00197A109B109C0F78091BB0037
:100F50000895892B8A2B8B2BC9F780E008959091F7
:100F60007C00907E90937C0090917C00892B8093F4
:100F70007C0080917A00806480937A0080917A006E
:100F800086FDFCCF609178007091790080E090E060
:100F90000E94110A20E030E040EA50E40E949F0ADB
:100FA00020E030E040E85AE30E949F0A089580E480
:100FB00080937C0085E880937A00089580E00E9409
:100FC000AF079B01AC016EEA77E481E290E40E94F6
:100FD000FC0822E538EB4EE150E40E94690920E06C
:100FE00030E048EC52E40E949F0A0E94DB09862F01
:100FF000089581E00E94AF079B01AC0160E070E0C2
:1010000080E290E40E94FC0822E538EB4EE150E4D7
:101010000E94690920E030E048EC52E40E949F0AF7
:101020000E94DB09862F0895CF93DF93CDB7DEB7FB
:1010300064970FB6F894DEBF0FBECDBF0E945D006F
:101040000E9478020E94DF020E947A030E94D70762
:101050000E947C052FEF80E792E021508040904075
:10106000E1F700C000000E94B30264E071E080E09C
:101070000E94D40264E171E088E20E94D4022FEF62
:1010800083ED90E3215080409040E1F700C00000E4
:10109000C12CD12C88248394912CCE0101967C0103
:1010A0008E01055F1F4F91E0A92E91E0B92E0E949D
:1010B0006200892B31F1C4018C199D096C0184E215
:1010C00091E00E945D0388E291E00E945D0388E266
:1010D00091E00E945D030E94B302C114D10419F48F
:1010E0006AE271E002C06BE371E080E00E94D4022A
:1010F0009FEF23ED80E3915020408040E1F700C056
:1011000000000E946B00892B31F185E491E00E9480
:101110005D038AE491E00E945D038FE39CE90197FF
:10112000F1F700C0000084E291E00E945D0388E2D4
:1011300091E00E945D0388E291E00E945D030E94BD
:101140006B00892BE1F785E491E00E945D038DE45B
:1011500091E00E945D03C114D10411F50E94DE07E5
:10116000992781950CF490959F938F93BF92AF929E
:10117000FF92EF920E940C0B0E94F907282F082E75
:10118000000C330B3F938F93BF92AF921F930F933B
:101190000E940C0B0FB6F894DEBF0FBECDBF04C08B
:1011A000B701C8010E9400010E94B30261E571E02D
:1011B00080E00E94D402B80187E00E94D40269E571
:1011C00071E080E40E94D402B70187E40E94D40257
:1011D00084E291E00E945D03C8010E945D03C701A3
:1011E0000E945D039FEF23EC89E0915020408040F6
:1011F000E1F700C000005BCF5058BB27AA270E9430
:1012000014090C94650A0E94570A38F00E945E0A7D
:1012100020F039F49F3F19F426F40C94540A0EF48C
:10122000E095E7FB0C944E0AE92F0E94760A58F3EA
:10123000BA17620773078407950720F079F4A6F5BB
:101240000C94980A0EF4E0950B2EBA2FA02D0B01EA
:10125000B90190010C01CA01A0011124FF27591BFB
:1012600099F0593F50F4503E68F11A16F040A22F01
:10127000232F342F4427585FF3CF46953795279572
:10128000A795F0405395C9F77EF41F16BA0B620B71
:10129000730B840BBAF09150A1F0FF0FBB1F661FB8
:1012A000771F881FC2F70EC0BA0F621F731F841FFB
:1012B00048F4879577956795B795F7959E3F08F021
:1012C000B0CF9395880F08F09927EE0F97958795E3
:1012D00008950E947D090C94650A0E945E0A58F0E8
:1012E0000E94570A40F029F45F3F29F00C944E0AFF
:1012F00051110C94990A0C94540A0E94760A68F3CE
:101300009923B1F3552391F3951B550BBB27AA27BE
:1013100062177307840738F09F5F5F4F220F331FF8
:10132000441FAA1FA9F335D00E2E3AF0E0E832D0C0
:1013300091505040E695001CCAF72BD0FE2F29D0C3
:10134000660F771F881FBB1F261737074807AB0795
:10135000B0E809F0BB0B802DBF01FF2793585F4F0A
:101360003AF09E3F510578F00C944E0A0C94990A7D
:101370005F3FE4F3983ED4F3869577956795B795EC
:10138000F7959F5FC9F7880F911D9695879597F9F7
:101390000895E1E0660F771F881FBB1F6217730770
:1013A0008407BA0720F0621B730B840BBA0BEE1F85
:1013B00088F7E09508950E94E2096894B1110C94B1
:1013C000990A08950E947E0A88F09F5798F0B92FD5
:1013D0009927B751B0F0E1F0660F771F881F991F6A
:1013E0001AF0BA95C9F714C0B13091F00E94980A6A
:1013F000B1E008950C94980A672F782F8827B85F7A
:1014000039F0B93FCCF3869577956795B395D9F7C1
:101410003EF490958095709561957F4F8F4F9F4FCB
:101420000895E89409C097FB3EF4909580957095D7
:1014300061957F4F8F4F9F4F9923A9F0F92F96E920
:10144000BB279395F695879577956795B795F11195
:10145000F8CFFAF4BB0F11F460FF1BC06F5F7F4F32
:101460008F4F9F4F16C0882311F096E911C0772344
:1014700021F09EE8872F762F05C0662371F096E84D
:10148000862F70E060E02AF09A95660F771F881F1C
:10149000DAF7880F9695879597F9089597F99F67DA
:1014A00080E870E060E008959FEF80EC08950024EC
:1014B0000A941616170618060906089500240A94B9
:1014C00012161306140605060895092E0394000C3F
:1014D00011F4882352F0BB0F40F4BF2B11F460FFCE
:1014E00004C06F5F7F4F8F4F9F4F089557FD9058F7
:1014F000440F551F59F05F3F71F04795880F97FBD8
:10150000991F61F09F3F79F0879508951216130691
:101510001406551FF2CF4695F1DF08C016161706C0
:101520001806991FF1CF86957105610508940895F5
:10153000E894BB2766277727CB0197F908950E9487
:10154000B20A0C94650A0E94570A38F00E945E0A9B
:1015500020F0952311F00C944E0A0C94540A112497
:101560000C94990A0E94760A70F3959FC1F3950F27
:1015700050E0551F629FF001729FBB27F00DB11D17
:10158000639FAA27F00DB11DAA1F649F6627B00DA7
:10159000A11D661F829F2227B00DA11D621F739F90
:1015A000B00DA11D621F839FA00D611D221F749F9E
:1015B0003327A00D611D231F849F600D211D822FE5
:1015C000762F6A2F11249F5750409AF0F1F088230C
:1015D0004AF0EE0FFF1FBB1F661F771F881F915039
:1015E0005040A9F79E3F510580F00C944E0A0C9490
:1015F000990A5F3FE4F3983ED4F386957795679513
:10160000B795F795E7959F5FC1F7FE2B880F911D62
:101610009695879597F90895AEE0B0E0E2E1FBE09A
:101620000C94BB0D0D891E8986E08C831A83098377
:101630008FEF9FE79E838D83AE01475E5F4F6F897B
:10164000788DCE0101960E942F0B2F813885F801ED
:10165000E20FF31F10822E96E4E00C94D70DACE05D
:10166000B0E0E5E3FBE00C94AD0D7C016B018A0179
:10167000FC0117821682838181FFBDC1CE010196D4
:101680004C01F7019381F60193FD859193FF8191C0
:101690006F01882309F4ABC1853239F493FD85913C
:1016A00093FF81916F01853229F4B70190E00E9488
:1016B000170DE7CF512C312C20E02032A0F48B32D3
:1016C00069F030F4803259F0833269F420612CC023
:1016D0008D3239F0803339F4216026C022602460D5
:1016E00023C0286021C027FD27C030ED380F3A30D5
:1016F00078F426FF06C0FAE05F9E300D1124532EC9
:1017000013C08AE0389E300D1124332E20620CC0A5
:101710008E3221F426FD6BC1206406C08C3611F494
:10172000206802C0883641F4F60193FD859193FF4D
:1017300081916F018111C1CF982F9F7D9554933076
:1017400028F40C5F1F4FFFE3F9830DC0833631F09F
:10175000833771F0833509F05BC022C0F8018081C6
:1017600089830E5F1F4F44244394512C540115C0AC
:101770003801F2E06F0E711CF801A080B18026FFE5
:1017800003C0652D70E002C06FEF7FEFC5012C87AD
:101790000E940C0D2C0183012C852F77222E17C05F
:1017A0003801F2E06F0E711CF801A080B18026FFB5
:1017B00003C0652D70E002C06FEF7FEFC5012C877D
:1017C0000E94010D2C012C852068222E830123FC10
:1017D0001BC0832D90E048165906B0F4B70180E293
:1017E00090E00E94170D3A94F4CFF50127FC859103
:1017F00027FE81915F01B70190E00E94170D311023
:101800003A94F1E04F1A51084114510471F7E5C0C0
:10181000843611F0893639F5F80127FF07C0608159
:101820007181828193810C5F1F4F08C0608171813B
:10183000072E000C880B990B0E5F1F4F2F76722E10
:1018400097FF09C090958095709561957F4F8F4F58
:101850009F4F2068722E2AE030E0A4010E944F0DB5
:10186000A82EA81844C0853729F42F7EB22E2AE06E
:1018700030E025C0F22FF97FBF2E8F36C1F018F46B
:10188000883579F0B4C0803719F0883721F0AFC0BF
:101890002F2F2061B22EB4FE0DC08B2D8460B82E88
:1018A00009C024FF0AC09F2F9660B92E06C028E009
:1018B00030E005C020E130E002C020E132E0F80174
:1018C000B7FE07C060817181828193810C5F1F4FD9
:1018D00006C06081718180E090E00E5F1F4FA4011F
:1018E0000E944F0DA82EA818FB2DFF777F2E76FEA5
:1018F0000BC0372D3E7FA51450F474FE0AC072FC55
:1019000008C0372D3E7E05C0BA2C372D03C0BA2C37
:1019100001C0B52C34FF0DC0FE01EA0DF11D808120
:10192000803311F4397E09C032FF06C0B394B394FA
:1019300004C0832F867809F0B39433FD13C030FFC1
:1019400006C05A2CB31418F4530C5B18B32CB31400
:1019500068F4B70180E290E03C870E94170DB394D1
:101960003C85F5CFB31410F43B1801C0312C34FF83
:1019700012C0B70180E390E03C870E94170D3C85C0
:1019800032FF17C031FD03C088E790E002C088E550
:1019900090E0B7010CC0832F867859F031FF02C068
:1019A0008BE201C080E237FD8DE2B70190E00E943A
:1019B000170DA51438F4B70180E390E00E94170DCD
:1019C0005A94F7CFAA94F401EA0DF11D8081B70172
:1019D00090E00E94170DA110F5CF332009F451CEED
:1019E000B70180E290E00E94170D3A94F6CFF7011C
:1019F0008681978102C08FEF9FEF2C96E2E10C94D5
:101A0000C90DFC010590615070400110D8F7809518
:101A100090958E0F9F1F0895FC01615070400190BA
:101A20000110D8F7809590958E0F9F1F08950F9302
:101A30001F93CF93DF93FB01238121FD03C08FEF21
:101A40009FEF28C022FF16C046815781248135812F
:101A50004217530744F4A081B1819D012F5F3F4F8E
:101A6000318320838C93268137812F5F3F4F3783CB
:101A7000268310C0EB01092F182F0084F185E02D7B
:101A80000995892BE1F68E819F8101969F838E8334
:101A9000812F902FDF91CF911F910F910895FA011F
:101AA000AA27283051F1203181F1E8946F936E7F9D
:101AB0006E5F7F4F8F4F9F4FAF4FB1E03ED0B4E08E
:101AC0003CD0670F781F891F9A1FA11D680F791FCF
:101AD0008A1F911DA11D6A0F711D811D911DA11DE0
:101AE00020D009F468943F912AE0269F11243019F0
:101AF000305D3193DEF6CF010895462F4770405D8B
:101B00004193B3E00FD0C9F7F6CF462F4F70405D39
:101B10004A3318F0495D31FD4052419302D0A9F794
:101B2000EACFB4E0A6959795879577956795BA958E
:101B3000C9F700976105710508959B01AC010A2E54
:101B400006945795479537952795BA95C9F7620F2B
:101B5000731F841F951FA01D08952F923F924F92CF
:101B60005F926F927F928F929F92AF92BF92CF922D
:101B7000DF92EF92FF920F931F93CF93DF93CDB736
:101B8000DEB7CA1BDB0B0FB6F894DEBF0FBECDBFAE
:101B900009942A88398848885F846E847D848C847F
:101BA0009B84AA84B984C884DF80EE80FD800C8188
:101BB0001B81AA81B981CE0FD11D0FB6F894DEBF6B
:0C1BC0000FBECDBFED010895F894FFCFDB
:101BCC0020256400557365206A6F79737469636BA3
:101BDC0020746F00636F6E74726F6C207468652074
:101BEC00636172004341520030004A6F797374692B
:101BFC00636B20656E61626C656400526F74617416
:101C0C006520524300484F524E004F4E004F4646FF
:101C1C000053706565643A200053746565723A2010
:021C2C000000B6
:00000001FF
